:100000000C942A001895000018950000189500001F
:10001000189500001895000018950000189500002C
:10002000189500001895000018950000189500001C
:10003000189500001895000018950000189500000C
:1000400018950000189500001895000018950000FC
:10005000189500008FE58DBFC6E6E0E94E2E88E0DA
:100060008EBFD7E0F4E05F2EA89584B7082E877F77
:1000700084BF88E1992781BD91BDEEEFF7E0A0E64E
:10008000B0E088278D933197E9F76624579A8FEF70
:100090008ABB8FEF84BBB89ABA9AB99AC1988F9AE3
:1000A000979ABB9A8E9A8D9A8C98709A689869984C
:1000B000BC9AC49A0E944C0796988A9A929A80EDAC
:1000C0008093A30080E98093A4000E9435035A9294
:1000D0004A928FEF9FEFD2018D939C9382E00E9412
:1000E0007A070E94E104229682E00E941C07E1E068
:1000F000F0E00E942E075A924A928FE190E0D201DE
:100100008D939C9382E00E947A070E94E1042296DC
:1001100082E00E941C070E9435035A924A9280E0B6
:1001200097E0D2018D939C9382E00E947A070E940F
:10013000E104229682E00E941C07E1E0F0E00E94C8
:100140002E075A924A928FEF9FEFD2018D939C9384
:1001500082E00E947A070E94E104229682E00E94D7
:100160001C07E1E0F0E00E942E075A924A928FE1CC
:1001700090E0D2018D939C9382E00E947A070E94C6
:10018000E104229682E00E941C07E1E0F0E00E9478
:100190002E075A924A9280E098EFD2018D939C9359
:1001A00082E00E947A070E94E104229682E00E9487
:1001B0001C07E1E0F0E00E942E070E9435035A92EE
:1001C0004A928FEF9FEFD2018D939C9382E00E9421
:1001D0007A070E94E104229682E00E941C07E1E077
:1001E000F0E00E942E075A924A9280E090E0D201FD
:1001F0008D939C9382E00E947A075A924A9280E003
:1002000090E0D2018D939C9382E00E947A075A92EB
:100210004A9280E491E0D2018D939C9382E00E9407
:100220007A075A924A9280EF90E0D2018D939C9384
:1002300082E00E947A075A924A9200E010E020E0A1
:1002400030E0D2010D931D932D933C9384E00E94E6
:100250007A070E9468052A968CE00E941C07E1E05C
:10026000F0E00E942E075A924A9280E090E0D2017C
:100270008D939C9382E00E947A075A924A9280E082
:1002800090E0D2018D939C9382E00E947A075A926B
:100290004A9280E491E0D2018D939C9382E00E9487
:1002A0007A075A924A9280EF90E0D2018D939C9304
:1002B00082E00E947A075A924A9200E018E522E012
:1002C00030E0D2010D931D932D933C9384E00E9466
:1002D0007A070E9468052A968CE00E941C07E1E0DC
:1002E000F0E00E942E075A924A9280E090E0D201FC
:1002F0008D939C9382E00E947A075A924A9280E002
:1003000090E0D2018D939C9382E00E947A075A92EA
:100310004A9280E491E0D2018D939C9382E00E9406
:100320007A075A924A9280EF90E0D2018D939C9383
:1003300082E00E947A075A924A9200E010EB24E091
:1003400030E0D2010D931D932D933C9384E00E94E5
:100350007A070E9468052A968CE00E941C07E1E05B
:10036000F0E00E942E075A924A9280E090E0D2017B
:100370008D939C9382E00E947A075A924A9280E081
:1003800090E0D2018D939C9382E00E947A075A926A
:100390004A9280E491E0D2018D939C9382E00E9486
:1003A0007A075A924A9280EF90E0D2018D939C9303
:1003B00082E00E947A075A924A9200E018E027E011
:1003C00030E0D2010D931D932D933C9384E00E9465
:1003D0007A070E9468052A968CE00E941C07E1E0DB
:1003E000F0E00E942E075A924A9280E090E0D201FB
:1003F0008D939C9382E00E947A075A924A9280E001
:1004000090E0D2018D939C9382E00E947A075A92E9
:100410004A9280E491E0D2018D939C9382E00E9405
:100420007A075A924A9280EF90E0D2018D939C9382
:1004300082E00E947A075A924A9200E010E629E090
:1004400030E0D2010D931D932D933C9384E00E94E4
:100450007A070E9468052A968CE00E941C07E1E05A
:10046000F0E00E942E075A924A9280E090E0D2017A
:100470008D939C9382E00E947A075A924A9280E080
:1004800090E0D2018D939C9382E00E947A075A9269
:100490004A9280E491E0D2018D939C9382E00E9485
:1004A0007A075A924A9280EF90E0D2018D939C9302
:1004B00082E00E947A075A924A9200E018EB2BE001
:1004C00030E0D2010D931D932D933C9384E00E9464
:1004D0007A070E9468052A968CE00E941C07E1E0DA
:1004E000F0E00E942E075A924A9280E090E0D201FA
:1004F0008D939C9382E00E947A075A924A9280E000
:1005000090E0D2018D939C9382E00E947A075A92E8
:100510004A9280E491E0D2018D939C9382E00E9404
:100520007A075A924A9280EF90E0D2018D939C9381
:1005300082E00E947A075A924A9200E010E12EE08F
:1005400030E0D2010D931D932D933C9384E00E94E3
:100550007A070E9468052A968CE00E941C07E1E059
:10056000F0E00E942E075A924A9288E290E0D2016F
:100570008D939C9382E00E947A075A924A9282E37A
:1005800090E0D2018D939C9382E00E947A075A9268
:100590004A9288E790E0D2018D939C9382E00E947A
:1005A0007A075A924A9288E290E0D2018D939C9306
:1005B00082E00E947A075A924A9200E018E620E10F
:1005C00030E0D2010D931D932D933C9384E00E9463
:1005D0007A070E9468052A968CE00E941C07E1E0D9
:1005E000F0E00E942E075A924A9288E290E0D201EF
:1005F0008D939C9382E00E947A075A924A928FE5EB
:1006000090E0D2018D939C9382E00E947A075A92E7
:100610004A9288E790E0D2018D939C9382E00E94F9
:100620007A075A924A9288E290E0D2018D939C9385
:1006300082E00E947A075A924A9200E81DE820E17F
:1006400030E0D2010D931D932D933C9384E00E94E2
:100650007A070E9468052A968CE00E941C07E1E058
:10066000F0E00E942E070C948B00979885E090E0B4
:100670000E946007979A5A924A9283E0D2018C9323
:1006800081E00E947A075A924A9280E390E1D20177
:100690008D939C9382E00E947A070E94C404249662
:1006A00083E00E941C075A924A9281E0D2018C9307
:1006B00081E00E947A075A924A9280E091E0D2014A
:1006C0008D939C9382E00E947A070E94C404249632
:1006D00083E00E941C075A924A9280E6D2018C93D2
:1006E00081E00E947A075A924A9280E097E2D20112
:1006F0008D939C9382E00E947A070E94C404249602
:1007000083E00E941C075A924A9282E0D2018C93A5
:1007100081E00E947A075A924A9280E092E0D201E8
:100720008D939C9382E00E947A070E94C4042496D1
:1007300083E00E941C075A924A9280E1D2018C9376
:1007400081E00E947A075A924A9280E996E1D201AA
:100750008D939C9382E00E947A070E94C4042496A1
:1007600083E00E941C075A924A9281E1D2018C9345
:1007700081E00E947A075A924A9287E292E0D2017F
:100780008D939C9382E00E947A070E94C404249671
:1007900083E00E941C0789E190E00E9460075A9262
:1007A0004A9282E1D2018C9381E00E947A075A92A8
:1007B0004A928DE090E0D2018D939C9382E00E945A
:1007C0007A070E94C404249683E00E941C0785E0F7
:1007D00090E00E9460075A924A928BE2D2018C9379
:1007E00081E00E947A075A924A928DE090E0D2010D
:1007F0008D939C9382E00E947A070E94C404249601
:1008000083E00E941C075A924A9280E8D2018C939E
:1008100081E00E947A075A924A9280E090E0D201E9
:100820008D939C9382E00E947A070E94C4042496D0
:1008300083E00E941C075A924A9281E8D2018C936D
:1008400081E00E947A075A924A9280E090E0D201B9
:100850008D939C9382E00E947A070E94C4042496A0
:1008600083E00E941C075A924A9282E8D2018C933C
:1008700081E00E947A075A924A928FE391E0D20176
:100880008D939C9382E00E947A070E94C404249670
:1008900083E00E941C075A924A9283E8D2018C930B
:1008A00081E00E947A075A924A9280E090E0D20159
:1008B0008D939C9382E00E947A070E94C404249640
:1008C00083E00E941C075A924A9284E8D2018C93DA
:1008D00081E00E947A075A924A9280E090E0D20129
:1008E0008D939C9382E00E947A070E94C404249610
:1008F00083E00E941C075A924A9285E8D2018C93A9
:1009000081E00E947A075A924A928FE391E0D201E5
:100910008D939C9382E00E947A070E94C4042496DF
:1009200083E00E941C075A924A9281E6D2018C937E
:1009300081E00E947A075A924A9283E090E0D201C5
:100940008D939C9382E00E947A070E94C4042496AF
:1009500083E00E941C075A924A9287E0D2018C934E
:1009600081E00E947A075A924A9283E390E3D2018F
:100970008D939C9382E00E947A070E94C40424967F
:1009800083E00E941C070895A881B9818D919C91F4
:10099000ACE8B0E08D939C9370E075BBAA81BB81FD
:1009A0008C918BBBC098C298C29AADE8B0E08C9194
:1009B00085BBACE8B0E08C918BBBC09AC298C29A60
:1009C000089581E00E94740781E00E9474070E94EC
:1009D000D60670E075BB72E27BBBC098C298C29A23
:1009E000C09AAC81BD8111968C9185BBAC81BD81D3
:1009F0008C918BBB80E0AA81BB818C93AA81BB8147
:100A00000C910B3318F011F00C94620580E0A88172
:100A1000B9818C93A881B9810C91073218F011F03B
:100A20000C945A05C298C29AC298C29AC298C29AA5
:100A3000C298C29AC298C29AC298C29AC298C29ADE
:100A4000C298C29AC298C29AC298C29AC298C29ACE
:100A5000C298C29AC298C29AC298C29AC298C29ABE
:100A6000C298C29AC298C29AC298C29AC298C29AAE
:100A7000C298C29AC298C29AC298C29AC298C29A9E
:100A8000C298C29AC298C29AC298C29AC298C29A8E
:100A9000C298C29AC298C29AC298C29AC298C29A7E
:100AA000C298C29AA881B9818C918F5F8C9310F4FF
:100AB0000C940A05AA81BB818C918F5F8C9310F4F2
:100AC0000C94FE0482E0481A80E0580A24960895A7
:100AD00082E00E94740782E00E9474075A924A9250
:100AE00083E0D2018C9381E00E947A075A924A9265
:100AF00088E390E1D2018D939C9382E00E947A0773
:100B00000E94C404249683E00E941C07AC85BD8526
:100B10000D911C91A885B9854D915C91040F151F0D
:100B2000AEE8B0E00D931C93AA85BB850D911C9196
:100B3000AE81BF814D915C91040F151FA0E9B0E01B
:100B40000D931C93A0E9B0E00E942707AEE8B0E047
:100B50000E9427075A924A9280E5D2018C9381E045
:100B60000E947A075A924A92AE85BF858D919C91D8
:100B7000D2018D939C9382E00E947A070E94C40464
:100B8000249683E00E941C075A924A9281E5D20182
:100B90008C9381E00E947A075A924A92A0E9B0E0D1
:100BA0008D919C91D2018D939C9382E00E947A0753
:100BB0000E94C404249683E00E941C075A924A9221
:100BC00082E5D2018C9381E00E947A075A924A9280
:100BD000A889B9898D919C91D2018D939C9382E0D3
:100BE0000E947A070E94C404249683E00E941C0796
:100BF0005A924A9283E5D2018C9381E00E947A074F
:100C00005A924A92AEE8B0E08D919C91D2018D93B8
:100C10009C9382E00E947A070E94C404249683E099
:100C20000E941C075A924A9280E2D2018C9381E082
:100C30000E947A075A924A92AE85BF858D919C9107
:100C4000D2018D939C9382E00E947A070E94C40493
:100C5000249683E00E941C075A924A9281E2D201B4
:100C60008C9381E00E947A075A924A92A889B989A6
:100C70008D919C91D2018D939C9382E00E947A0782
:100C80000E94C404249683E00E941C07C49870E06C
:100C900075BB72E27BBBC098C298C29AC09AAC8105
:100CA000BD810D911D912D913C91A2E9B0E00D9374
:100CB0001D932D933C9383E080938E0091E0AEE8EA
:100CC000B0E00E94420791E0A4E9B0E00E94420730
:100CD00091E0A3E9B0E00E94420791E0A2E9B0E010
:100CE0000E94420781E090E0A881B9818D939C9396
:100CF000AE81BF814D915C91A881B9810D911C910C
:100D00000417150718F011F00C94B70681E090E075
:100D1000AA81BB818D939C93A885B9854D915C91E7
:100D2000AA81BB810D911C910417150718F011F0D1
:100D30000C94B00692E0AEE8B0E00E943707AEE84F
:100D4000B0E08C9185BBAFE8B0E08C918BBBC298D2
:100D5000C29AAA81BB810E94200710F40C948C06D1
:100D6000A881B9810E94200710F40C947806C49AD7
:100D70005A924A9283E0D2018C9381E00E947A07D2
:100D80005A924A9280E390E1D2018D939C9382E043
:100D90000E947A070E94C404249683E00E941C07E4
:100DA00084E0481A80E0580A2496089570E075BBE4
:100DB00070E57BBBC098C298C29A70E07BBBC09ABA
:100DC000C298C29A71E57BBBC098C298C29A7FEE66
:100DD0007BBBC09AC298C29A72E57BBBC098C2988E
:100DE000C29A70E07BBBC09AC298C29A73E57BBB83
:100DF000C098C298C29A71E075BB7FE37BBBC09A72
:100E0000C298C29A70E075BB70E27BBBC098C29872
:100E1000C29A70E07BBBC09AC298C29A71E27BBB57
:100E2000C098C298C29A70E07BBBC09AC298C29A1E
:100E30000895481A590A0895481A8827580A0895A3
:100E4000ED91FC91EF5FFF4FFC93EE930895ED91D0
:100E5000FC91E150F040FC93EE93089588EE93E00E
:100E60002FD03197D9F708953197F1F708950E945F
:100E700053078C910E9455078D939A95D1F70E9444
:100E8000540708950E9453078D910E9455079A9523
:100E9000D9F70E9454070895BF9ABE98C69ABD9A82
:100EA0008CE58DB90895089508958FB9779BFECF8D
:100EB0008FB10895689462F80895E89462F80895EF
:100EC000EF93FF93EE27E82BE92B31F0E0EAFFE008
:100ED0003197F1F70197D1F7FF91EF9108955A9269
:100EE0004A92480E591E08955A924A92480E8827EF
:0C0EF000581E0895480E8827581E0895CB
:00000001FF
