:100000000C942A001895000018950000189500001F
:10001000189500001895000018950000189500002C
:10002000189500001895000018950000189500001C
:10003000189500001895000018950000189500000C
:1000400018950000189500001895000018950000FC
:10005000189500008FE58DBFC6E6E0E94E2E88E0DA
:100060008EBFD7E0F4E05F2EA89584B7082E877F77
:1000700084BF88E1992781BD91BDEEEFF7E0A0E64E
:10008000B0E088278D933197E9F787E689B980E05A
:1000900080BD88E18AB9662475B7706875BF75B789
:1000A000706875BF75B7706875BF78948FEF84BB43
:1000B0008FEF8ABBB89ABA9AB99AC1988F9A979AD1
:1000C000C49A8A9A929A80ED8093A10080E98093E5
:1000D000A20078940E9403185A924A9280EE97E008
:1000E000D2018D939C9382E00E9463210E94931B16
:1000F000229682E00E94FF20EEE2FFE00E94F620BE
:10010000E1E0F0E00E943A215A924A92D201E4E5FD
:10011000F7E40E9471218DE00E9463215A924A9275
:1001200089E190E0D2018D939C9382E00E9463214B
:100130005A924A9282E390E0D2018D939C9382E09E
:100140000E9463215A924A9280E090E0D2018D93FE
:100150009C9382E00E9463215A924A9280EE97E03B
:10016000D2018D939C9382E00E9463210E94371CF0
:100170002A9685E10E94FF20E2E6F7E40E942C2106
:100180000E943321E1E0F0E00E943A215A924A9223
:1001900080E097E0D2018D939C9382E00E946321DE
:1001A0000E94931B229682E00E94FF205A924A925C
:1001B000D201E4E5F7E40E9471218DE00E94632101
:1001C0005A924A9289E190E0D2018D939C9382E009
:1001D0000E9463215A924A9282E390E0D2018D9369
:1001E0009C9382E00E9463215A924A9280E090E0C0
:1001F000D2018D939C9382E00E9463215A924A928D
:1002000080E097E0D2018D939C9382E00E9463216D
:100210000E94371C2A9685E10E94FF20E1E0F0E071
:100220000E943A215A924A9280E090E0D2018D9346
:100230009C9382E00E9463210E94931B229682E09D
:100240000E94FF205A924A92D201E4E5F7E40E940C
:1002500071218DE00E9463215A924A9289E190E0D7
:10026000D2018D939C9382E00E9463215A924A921C
:1002700082E390E0D2018D939C9382E00E946321FF
:100280005A924A928FEF9FEFD2018D939C9382E016
:100290000E9463215A924A9280E090E0D2018D93AD
:1002A0009C9382E00E9463210E94371C2A9685E17C
:1002B0000E94FF20E1E0F0E00E943A215A924A9227
:1002C0008FE190E0D2018D939C9382E00E946321A4
:1002D0000E94931B229682E00E94FF205A924A922B
:1002E000D201E4E5F7E40E9471218DE00E946321D0
:1002F0005A924A9289E190E0D2018D939C9382E0D8
:100300000E9463215A924A9282E390E0D2018D9337
:100310009C9382E00E9463215A924A928FEF9FEF52
:10032000D2018D939C9382E00E9463215A924A925B
:100330008FE190E0D2018D939C9382E00E94632133
:100340000E94371C2A9685E10E94FF20E1E0F0E040
:100350000E943A215A924A9280E098EFD2018D93FE
:100360009C9382E00E9463210E94931B229682E06C
:100370000E94FF205A924A9288E790E0D2018D9322
:100380009C9382E00E9463215A924A9280EA90E014
:10039000D2018D939C9382E00E9463215A924A92EB
:1003A00080E090E0D2018D939C9382E00E946321D3
:1003B0000E942F1E269686E00E94FF205A924A92A3
:1003C000D201E4E5F7E40E9471218DE00E946321EF
:1003D0005A924A9289E190E0D2018D939C9382E0F7
:1003E0000E9463215A924A9282E390E0D2018D9357
:1003F0009C9382E00E9463215A924A9280E090E0AE
:10040000D2018D939C9382E00E9463215A924A927A
:1004100080E098EFD2018D939C9382E00E9463214B
:100420000E94371C2A9685E10E94FF20E1E0F0E05F
:100430000E943A21EEE2FFE00E94F620E1E0F0E0C7
:100440000E943A215A924A928FEF9FEFD2018D93E8
:100450009C9382E00E9463210E94931B229682E07B
:100460000E94FF20EEE2FFE00E94F6205A924A929C
:10047000D201EEE6F7E40E94712185E10E9463213A
:100480005A924A9281E090E0D2018D939C9382E04F
:100490000E9463215A924A9289E190E0D2018D93A1
:1004A0009C9382E00E9463215A924A9280E190E8F4
:1004B000D2018D939C9382E00E9463215A924A92CA
:1004C0008FEF9FEFD2018D939C9382E00E94632176
:1004D0000E94371C2A968DE10E94FF205A924A9270
:1004E000D201E4E5F7E40E9471218DE00E946321CE
:1004F0005A924A9289E190E0D2018D939C9382E0D6
:100500000E9463215A924A9282E390E0D2018D9335
:100510009C9382E00E9463215A924A9280E090E08C
:10052000D2018D939C9382E00E9463215A924A9259
:100530008FEF9FEFD2018D939C9382E00E94632105
:100540000E94371C2A9685E10E94FF20E2E3F4E234
:100550000E94F6207091830070687093830084E19C
:1005600090E0A6E9B0E08D939C93A6E9B0E00D91F0
:100570001C910E3150E0150718F011F00C9409038E
:10058000A3EAB0E0E6E9F0E00E942D235A924A92F5
:10059000E3EAF0E0D2010E94862387E00E94632113
:1005A0005A924A9286E490E0D2018D939C9382E025
:1005B0000E9463215A924A928EE690E0D2018D9376
:1005C0009C9382E00E9463215A924A928FE190E0CC
:1005D000D2018D939C9382E00E9463215A924A92A9
:1005E0008FEF9FEFD2018D939C9382E00E94632155
:1005F0000E94371C2A968FE00E94FF20E1E0F0E085
:100600000E943A21A6E9B0E00E94032110F40C9464
:10061000B502709183007F7770938300EEE2FFE074
:100620000E94F6205A924A92D201E4E8F7E40E942E
:10063000712189E00E9463215A924A928CE390E0F2
:10064000D2018D939C9382E00E9463215A924A9238
:1006500084EB90E0D2018D939C9382E00E94632111
:100660005A924A9280E090E0D2018D939C9382E06E
:100670000E9463215A924A928FEF9FEFD2018D938D
:100680009C9382E00E9463210E94371C2A9681E19C
:100690000E94FF205A924A9281E0D2018C9381E01D
:1006A0000E9463210E941A1C229681E00E94FF2072
:1006B000E2E3F4E20E94F620709183007068709388
:1006C00083008FE190E0A6E9B0E08D939C93A6E9CA
:1006D000B0E00D911C91083250E0150718F011F0B0
:1006E0000C94BB03A3EAB0E0E6E9F0E00E942D23FE
:1006F0005A924A92E3EAF0E0D2010E94862387E010
:100700000E9463215A924A9286E490E0D2018D932E
:100710009C9382E00E9463215A924A928EE690E076
:10072000D2018D939C9382E00E9463215A924A9257
:100730008FE190E0D2018D939C9382E00E9463212F
:100740005A924A928FEF9FEFD2018D939C9382E051
:100750000E9463210E94371C2A968FE00E94FF208E
:10076000E1E0F0E00E943A21A6E9B0E00E94032116
:1007700010F40C946703709183007F77709383006B
:10078000EEE2FFE00E94F6205A924A92D201EEE891
:10079000F7E40E94712189E00E9463215A924A92F3
:1007A0008CE390E0D2018D939C9382E00E946321C0
:1007B0005A924A9284EB90E0D2018D939C9382E00E
:1007C0000E9463215A924A9280E090E0D2018D9378
:1007D0009C9382E00E9463215A924A928FEF9FEF8E
:1007E000D2018D939C9382E00E9463210E94371C6A
:1007F0002A9681E10E94FF205A924A9280E0D2011B
:100800008C9381E00E9463210E941A1C229681E051
:100810000E94FF20E2E0F0E00E943A215A924A92C0
:1008200080E090E0D2018D939C9382E00E9463214E
:100830000E94931B229682E00E94FF205A924A92C5
:10084000D201E8E9F7E40E94712188E00E94632167
:100850005A924A9286E490E0D2018D939C9382E072
:100860000E9463215A924A928AE090E0D2018D93CD
:100870009C9382E00E9463215A924A928FEF9FEFED
:10088000D2018D939C9382E00E9463215A924A92F6
:1008900080E090E0D2018D939C9382E00E946321DE
:1008A0000E94371C2A9680E10E94FF2084EF91E08D
:1008B0000E9449218AE090E0A6E9B0E08D939C93E4
:1008C000A6E9B0E00D911C91063351E0150718F030
:1008D00011F00C94C20484E190E0A8E9B0E08D939B
:1008E0009C93A8E9B0E00D911C91063E50E01507DD
:1008F00018F011F00C94B3045A924A92A6E9B0E0B1
:100900008D919C91D2018D939C9382E00E946321F2
:100910005A924A92A8E9B0E08D919C91D2018D93B0
:100920009C9382E00E9463215A924A928FEF9FEF3C
:10093000D2018D939C9382E00E9463210E942F1E1E
:10094000269686E00E94FF20A8E9B0E00D911C9158
:1009500040E250E0040F151FA8E9B0E00D931C938E
:1009600010F00C947104A6E9B0E00D911C9140E2E6
:1009700050E0040F151FA6E9B0E00D931C9310F092
:100980000C94600484EF91E00E9449218AE190E098
:10099000A6E9B0E08D939C93A6E9B0E00D911C917F
:1009A000063351E0150718F011F00C942E0582E47F
:1009B00090E0A8E9B0E08D939C93A8E9B0E00D9198
:1009C0001C91063E50E0150718F011F00C941F051D
:1009D0005A924A92A6E9B0E08D919C91D2018D93F2
:1009E0009C9382E00E9463215A924A92A8E9B0E067
:1009F0008D919C91D2018D939C9382E00E94632102
:100A00005A924A928FEF9FEFD2018D939C9382E08E
:100A10000E9463210E942F1E269686E00E94FF20DE
:100A2000A8E9B0E00D911C9140E150E0040F151FC2
:100A3000A8E9B0E00D931C9310F00C94DD04A6E936
:100A4000B0E00D911C9140E150E0040F151FA6E9A4
:100A5000B0E00D931C9310F00C94CC0484EF91E063
:100A60000E94492182E190E0A6E9B0E08D939C9339
:100A7000A6E9B0E00D911C91063351E0150718F07E
:100A800011F00C949A058AE390E0A8E9B0E08D9308
:100A90009C93A8E9B0E00D911C91063E50E015072B
:100AA00018F011F00C948B055A924A92A6E9B0E026
:100AB0008D919C91D2018D939C9382E00E94632141
:100AC0005A924A92A8E9B0E08D919C91D2018D93FF
:100AD0009C9382E00E9463215A924A928FEF9FEF8B
:100AE000D2018D939C9382E00E9463210E942F1E6D
:100AF000269686E00E94FF20A8E9B0E00D911C91A7
:100B000048E050E0040F151FA8E9B0E00D931C93D6
:100B100010F00C944905A6E9B0E00D911C9148E055
:100B200050E0040F151FA6E9B0E00D931C9310F0E0
:100B30000C94380584EF91E00E9449218EE090E00A
:100B4000A6E9B0E08D939C93A6E9B0E00D911C91CD
:100B5000063351E0150718F011F00C94060686E3F1
:100B600090E0A8E9B0E08D939C93A8E9B0E00D91E6
:100B70001C91063E50E0150718F011F00C94F70593
:100B80005A924A92A6E9B0E08D919C91D2018D9340
:100B90009C9382E00E9463215A924A92A8E9B0E0B5
:100BA0008D919C91D2018D939C9382E00E94632150
:100BB0005A924A928FEF9FEFD2018D939C9382E0DD
:100BC0000E9463210E942F1E269686E00E94FF202D
:100BD000A8E9B0E00D911C9144E050E0040F151F0E
:100BE000A8E9B0E00D931C9310F00C94B505A6E9AC
:100BF000B0E00D911C9144E050E0040F151FA6E9F0
:100C0000B0E00D931C9310F00C94A405E2E0F0E02A
:100C10000E943A215A924A928FEF9FEFD2018D9310
:100C20009C9382E00E9463210E94931B229682E0A3
:100C30000E94FF205A924A92D201E0EAF7E40E9411
:100C4000712186E00E9463215A924A9286E490E0E4
:100C5000D2018D939C9382E00E9463215A924A9222
:100C60008AE090E0D2018D939C9382E00E94632100
:100C70005A924A9280E097E0D2018D939C9382E051
:100C80000E9463215A924A928FEF9FEFD2018D9377
:100C90009C9382E00E9463210E94371C2A968EE07A
:100CA0000E94FF2081E090E0A6E9B0E08D939C9344
:100CB000A6E9B0E00D911C91043050E0150718F042
:100CC00011F00C9493078CE390E0A8E9B0E08D93C9
:100CD0009C93A8E9B0E00D911C91043B50E01507EE
:100CE00018F011F00C94F7065A924A9288E790E0B7
:100CF000D2018D939C9382E00E9463215A924A9282
:100D00008CED90E0D2018D939C9382E00E94632150
:100D10005A924A92A8E9B0E08D919C91D2018D93AC
:100D20009C9382E00E9463215A924A9280E590E06F
:100D3000D2018D939C9382E00E9463215A924A9241
:100D400080E090E0D2018D939C9382E00E94632129
:100D50000E947E1E2A968AE00E94FF205A924A92A2
:100D600088E790E0D2018D939C9382E00E946321FA
:100D70005A924A928CED90E0D2018D939C9382E03E
:100D80000E9463215A924A92A8E9B0E08D919C9109
:100D9000D2018D939C9382E00E9463215A924A92E1
:100DA00080E590E0D2018D939C9382E00E946321C4
:100DB0005A924A928FEF9FEFD2018D939C9382E0DB
:100DC0000E9463210E947E1E2A968AE00E94FF20D4
:100DD000A8E9B0E00D911C9144E050E0040F151F0C
:100DE000A8E9B0E00D931C9310F00C94690683EB16
:100DF00090E0A8E9B0E08D939C93A8E9B0E04D9114
:100E00005C910DE310E00417150718F011F00C9435
:100E10008C075A924A9288E790E0D2018D939C9376
:100E200082E00E9463215A924A928CED90E0D201B6
:100E30008D939C9382E00E9463215A924A92A8E982
:100E4000B0E08D919C91D2018D939C9382E00E94A1
:100E500063215A924A9280E590E0D2018D939C934F
:100E600082E00E9463215A924A9280E090E0D2018F
:100E70008D939C9382E00E9463210E947E1E2A969D
:100E80008AE00E94FF205A924A9288E790E0D201BD
:100E90008D939C9382E00E9463215A924A928CED3A
:100EA00090E0D2018D939C9382E00E9463215A923C
:100EB0004A92A8E9B0E08D919C91D2018D939C93C8
:100EC00082E00E9463215A924A9280E590E0D2012A
:100ED0008D939C9382E00E9463215A924A928FEFF5
:100EE0009FEFD2018D939C9382E00E9463210E9428
:100EF0007E1E2A968AE00E94FF20A8E9B0E00D91AC
:100F00001C914CEF5FEF040F151FA8E9B0E00D93A3
:100F10001C9310F40C94FD06A6E9B0E00E94032196
:100F200010F40C9458060C94C600F894FFCF020CF1
:100F30001800000000000000000000000000000099
:100F400000000000000000000000000000007CFF26
:100F5000FF7C0000000000000000003333000000B0
:100F600000000000003C3C00003C3C000000000091
:100F70000000000000000000000000001090F07E63
:100F80001E90F07E1E1000021E1F03021E1F030291
:100F90000000000078FCCCFFFFCCCC8800000000F3
:100FA000040C0C3F3F0C0F070000000038383800DD
:100FB00080C0E070381C0030381C0E070301383840
:100FC0003800000000B8FCC6E23E1C000000000033
:100FD0001F3F3121371E1C36220000000000273F32
:100FE0001F000000000000000000000000000000E2
:100FF0000000000000F0FCFE0701010000000000FE
:1010000000030F1F3820200000000000000101072E
:10101000FEFCF00000000000002020381F0F03003D
:101020000000000098B8E0F8F8E0B8980000000070
:101030000C0E030F0F030E0C00000000808080F0E8
:10104000F0808080000000000101010F0F0101010C
:101050000000000000000000000000000000000090
:101060000000B8F878000000000000008080808058
:101070008080808000000000010101010101010168
:101080000000000000000000000000000000000060
:101090000000383838000000000000000000008028
:1010A000C0E070381C0E00181C0E07030100000081
:1010B000000000F8FE06030303030306FEF8000722
:1010C0001F183030303030181F070000000C0C0E95
:1010D000FFFF000000000000003030303F3F3030A4
:1010E0003000001C1E07030383C3E3773E1C00305F
:1010F000383C3E37333130303030000C0E07C3C33C
:10110000C3C3C3E77E3C000C1C383030303030396C
:101110001F0E00C0E070381C0E07FFFF0000000328
:101120000303030303033F3F0303003F7F63636342
:10113000636363E3C383000C1C38303030303038D5
:101140001F0F00C0F0F8DCCEC7C3C3C38000000F80
:101150001F393030303030391F0F000303030303D1
:1011600003C3F33F0F0300000000303C0F030000F7
:1011700000000000BCFEE7C3C3C3E7FEBC00000FD5
:101180001F393030303030391F0F003C7EE7C3C389
:10119000C3C3C3E7FEFC000000303030381C0E072C
:1011A00003000000000070707000000000000000EC
:1011B00000001C1C1C0000000000000000007070FB
:1011C000700000000000000000009CFC7C0000009B
:1011D00000000000C0E0F0381C0E07030000000013
:1011E000000103070E1C38300000000060606060E2
:1011F00060606060600000000606060606060606DF
:101200000600000003070E1C38F0E0C000000000DC
:1012100030381C0E070301000000001C1E0703836A
:10122000C3E3773E1C0000000000003737000000D9
:1012300000000000000000000000000000000000AE
:10124000000000000000000000000000000000009E
:10125000000000000000000000000000000000008E
:10126000000000000000000000000000000000007E
:101270000000000000000000000000F0FC0E07036A
:101280000303070E0C0000030F1C38303030381CED
:101290000C0000FFFF03030303070EFCF000003FF8
:1012A0003F30303030381C0F0300000000000000D9
:1012B000000000000000000000000000000000002E
:1012C000000000000000000000000000000000001E
:1012D000000000000000000000000000000000000E
:1012E00000000000000000000000000000000000FE
:1012F00000000000000000000000000000000000EE
:1013000000000000000000000000000000000000DD
:1013100000000000000000000000000000000000CD
:1013200000000000000000000000000000000000BD
:1013300000000000000000000000000000000000AD
:10134000000000000000000000000000000000009D
:10135000000000FFFF000000000000000000003F50
:101360003F303030303030303000000000000000BE
:10137000000000000000000000000000000000006D
:10138000000000FFFF0E38F0C00000FFFF00003F2C
:101390003F00000003071C3F3F000000000000006A
:1013A000000000000000000000000000000000003D
:1013B000000000FFFF8383838383C7FE7C00003F20
:1013C0003F010101010101000000000000000000D8
:1013D000000000000000000000000000000000000D
:1013E000000000FFFF8383838383C7FE7C00003FF0
:1013F0003F010103070F1D3830000000000000000E
:1014000000000000000000000000000000000000DC
:1014100000000000000000000000000000000000CC
:1014200000000000000000000000000000000000BC
:1014300000000000000000000000000000000000AC
:10144000000000000000000000000000000000009C
:10145000000000000000000000000000000000008C
:10146000000000000000000000000000000000007C
:10147000000000030F1C30E0E0301C0F03000030C0
:101480003C0E030101030E3C300000030F3CF0C092
:10149000C0F03C0F030000000000003F3F000000D0
:1014A000000000000000000000000000000000003C
:1014B000000000000000000000000000000000002C
:1014C000000000000000000000000000000000001C
:1014D0000000000E1C3870E0C0800000000000001A
:1014E000000000000103070E1C18000000000000AF
:1014F00000000000000000000000000000000000EC
:1015000000000000000000000000000000000000DB
:1015100000000000000000000000000000000000CB
:1015200000000000000000C0C0C0C0C0C0C0C0C0FB
:10153000C0C000000000003E7E4E00000000000021
:10154000000000000000000000000000000000009B
:10155000000000000000000000000000000000008B
:10156000000000000000000000000000000000007B
:10157000000000000000000000000080C0E060608B
:10158000606060C08000000F1F383030303030188D
:1015900008000080C0E0606060E0C0FFFF00000F56
:1015A0001F3830303030303F3F0000000000000076
:1015B000000000000000000000000000000000002B
:1015C000000000000000000000000000000000001B
:1015D000000000000000000000000000000000000B
:1015E00000000000000000000000000000000000FB
:1015F00000000000000000000000000000000000EB
:1016000000000000000000000000000000000000DA
:1016100000000000000000000000000000000000CA
:1016200000000000000000000000000000000000BA
:1016300000000000000000000000000000000000AA
:10164000000000000000000000000000000000009A
:1016500000000000000003FFFF0000000000000089
:101660000030303F3F30300000000000000000003C
:10167000000000000000000000000000000000006A
:1016800000000000E0E060606060E0C080000000FA
:101690003F3F00000000003F3F000000000000004E
:1016A000000000000000000000000000000000003A
:1016B000000000E0E06060606060E0C0800000FF6B
:1016C000FF0C181818181C0F07000000000000007D
:1016D000000000000000000000000000000000000A
:1016E00000000000E0E0C060606060E0C00000005A
:1016F0003F3F00000000000000000000000000006C
:1017000000000000000000000000000000000000D9
:1017100000000000000000000000000000000000C9
:1017200000000000000000000000000000000000B9
:1017300000000000000000000000000000000000A9
:101740000000000000000000000000000000000099
:101750000000000000000000000000000000000089
:101760000000000000000000000000000000000079
:1017700000000060E0C0800080C0E0600000003039
:10178000381D0F070F1D38300000000060E080009A
:101790000080E060000000000081E77E1E0701007D
:1017A0000000000000000000000000000000000039
:1017B0000000000000000000000000000000000029
:1017C0000000000000000000000000000000000019
:1017D0000000000000000000000000000000000009
:101BF000000000F8F89B9B98989B9B181800003FEA
:101C00003F3131313131313030000000000000000F
:101C100000000000000000000000000000000000C4
:101C200000000000000000000000000000000000B4
:101C300000000000000000000000000000000000A4
:101C40000000000000000000000000000000000094
:101C50000000000000000000000000000000000084
:101C60000000000000000000000000000000000074
:101C70000000000000000000000000000000000064
:101C80000000000000000000000000000000000054
:101C90000000000000000000000000000000000044
:101CA0000000000000000000000000000000000034
:101CB0000000000000000000000000000000000024
:101CC000000000000000000000000000F008081004
:101CD00020100808F00000000001020408040201BE
:101CE00000000000000000000000000000000000F4
:101CF00000000000000000000000000000000000E4
:101D000000000000000000000000000000000000D3
:101D100000000000000000000000000000000000C3
:101D200000000000000000000000000000000000B3
:101D300000000000000000000000000000000000A3
:101D40000000000000000000000000000000000093
:101D50000000000000000000000000000000000083
:101D60000000000000000000000000000000000073
:101D700000000080C0EC6C60606C6CC08000000FE4
:101D80001F333333333333130300000000C0E0E06C
:101D9000E0E0C000000000000003070707070300A1
:101DA0000000000000000080C08000000000000073
:101DB000000000010301000000000000000000001E
:101DC0000000000000000000000000000000000013
:101DD0000000FFFF1EF08000FFFF1C36361C3F3F57
:101DE0000000031E3F3F0303030300000000000048
:101DF00000000000000000000000000000000000E3
:101E000000000000000000000000000000000000D2
:101E100000000000000000000000000000000000C2
:101E200000000000000000000000000000000000B2
:101E3000000000F0FC0E0703030303FFFF00003F58
:101E40003F0303030303033F3F0000FFFFC3C3C37C
:101E5000C3C3C3830300003F3F3030303030391FED
:101E60000F0000FFFFC3C3C3C3E7FEBC0000003F79
:101E70003F3030303030391F0F0000FFFF030303C5
:101E8000030303030300003F3F00000000000000C5
:101E9000000000F0FC0E0703030303FFFF00F0FF48
:101EA0003F3030303030303FFFF000FFFFC3C3C35E
:101EB000C3C3C3030300003F3F3030303030303005
:101EC00030000F3EF8E0C0FFFFC0E0F81E073C1FE7
:101ED0000701003F3F0001071F3C000C0E07C3C372
:101EE000C3C3C3E77E3C000C1C383030303030397F
:101EF0001F0E00FFFF0000C0F0380EFFFF00003F84
:101F00003F1C07030000003F3F0000FFFF0000C62A
:101F1000F3380EFFFF00003F3F1C07030000003FA7
:101F20003F0000FFFFC0E0F0381C0E070300003F39
:101F30003F000103070E1C38300000F0FC0E0703C1
:101F4000030303FFFF00003F3F0000000000003FCD
:101F50003F0000FFFF1E78E0E0781EFFFF00003F1B
:101F60003F0000010100003F3F0000FFFFC0C0C074
:101F7000C0C0C0FFFF00003F3F0000000000003F66
:101F80003F0000F0FC0E070303070EFCF000000307
:101F90000F1C383030381C0F030000FFFF03030311
:101FA000030303FFFF00003F3F0000000000003F6D
:101FB0003F0000FFFF8383838383C7FE7C00003FD5
:101FC0003F01010101010100000000F0FC0E0703C8
:101FD0000303070E0C0000030F1C38303030381C90
:101FE0000C000000030303FFFF03030300000000D5
:101FF0000000003F3F0000000000007FFFC0C0C0A5
:10200000C0C0C0FFFF000018383030303030381FFB
:10201000070000F8FC0C0CFFFF0C0CFCF8000003A0
:102020000706063F3F060607030000030F1C30E0CB
:10203000E0301C0F030000303C0E030101030E3C96
:10204000300000FFFF0000000000FFFF0000003F25
:102050003F30303030303FFFF000007FFFC0C0C065
:10206000C0C0C0FFFF000000000000000000003FF3
:102070003F0000FFFF0000FFFF0000FFFF00003FE8
:102080003F30303F3F30303F3F0000FFFF0000FF58
:10209000FF0000FFFF00003F3F30303F3F30303F48
:1020A000FFF00F0F03FFFF606060E0C080000000E2
:1020B000003F3F303030381F0F0000FFFF6060E00E
:1020C000C08000FFFF00003F3F3030381F0F003F4F
:1020D0003F0000FFFF6060606060E0C08000003F84
:1020E0003F3030303030381F0F00000C0E07C3C3B4
:1020F000C3C7CEFCF000000C1C38303030381C0F49
:102100000300FFFFC0F0FC0E0703070EFCF03F3F8B
:1021100000030F1C3830381C0F03007CFEC783837C
:10212000838383FFFF000030381D0F070301013F49
:102130003F00000040606060606060E0C000001C24
:102140003E3333333333333F3F0000F0F898D8D871
:10215000D8D8D88C0000001F3F3130303030391FC4
:102160000F000000E0E060606060E0C00000000080
:102170003F3F323232323F1D00000000E0E060603D
:1021800060606060000000003F3F00000000000051
:102190000000000080C060606060E0E0000000F0CF
:1021A000FF3F303030303FFFF0000080C0E0606023
:1021B000606060C08000000F1F3B33333333331344
:1021C000010060E0C08000E0E00080C0E0603038E6
:1021D0001F07033F3F03071F3830000080C06060C7
:1021E0006060C080000000000818303232321F0DDD
:1021F00000000000E0E00000000080E0E0000000DF
:102200003F3F180C0603013F3F000000E0E00000E4
:10221000180C80E0E00000003F3F180C0603013F6F
:102220003F000000E0E00080C0E06000000000002F
:102230003F3F03070F1C38300000000080C0606083
:102240006060E0E0000000003F3F000000003F3F12
:10225000000000E0E0E0C00000C0E0E0E000003F7F
:102260003F0001030301003F3F000000E0E00000E9
:10227000000000E0E00000003F3F06060606063FC3
:102280003F000080C0E060606060E0C08000000F40
:102290001F3830303030381F0F000000E0E0606041
:1022A000606060E0E00000003F3F00000000003F91
:1022B0003F0000E0E06060606060E0C0800000FF20
:1022C000FF0C181818181C0F07000080C0E0606091
:1022D000606060C08000000F1F3830303030301830
:1022E00008000000606060E0E060606000000000E6
:1022F0000000003F3F0000000000000060E08000A0
:102300000080E060000000000081E77E1E07010001
:1023100000000080C0C0C0E0E0C0C0C08000001F5E
:102320003F3030FFFF30303F1F000060E0C08000D2
:1023300080C0E06000000030381D0F070F1D3830EE
:1023400000000000E0E000000000E0E0000000000D
:102350003F3F303030303FFFF0000000E0E0000051
:102360000000E0E0000000000307060606063F3F0D
:10237000000000E0E00000E0E00000E0E000003FDE
:102380003F30303F3F30303F3F0000E0E00000E0B2
:10239000E00000E0E000003F3F30303F3F30303FA2
:1023A000FFF000E0E060E0E000000000000000005E
:1023B00000003F3F3333333F1E0000E0E0000000E9
:1023C000000000E0E000003F3F3333333F1E003F9A
:1023D0003F000000E0E000000000000000000000FE
:1023E0003F3F333333333F1E00000080C0606060E6
:1023F0006060C0800000000818303033333B1F0F8E
:10240000000000E0E00080C0E060E0C08000003F2D
:102410003F030F1F3830381F0F000000C0E060601E
:102420006060E0E000000000313B1E0E06023F3F0E
:1024300000000724FC000000000000000000000075
:10244000000000000000000000000000000000008C
:10245000000000000000000000000000000000007C
:10246000000000000000000000000000000000006C
:10247000000000000000000000000000000000005C
:10248000000000000000000000000000000000004C
:10249000000000000000000000000000000000003C
:1024A000000000000000000000000000000000002C
:1024B000000000000000000000000000000000001C
:1024C000000000000000000000000000000000000C
:1024D00000000000000000000000000000000000FC
:1024E00000000000000000000000000000000000EC
:1024F00000000000000000000000000000000000DC
:1025000000000000000000000000000000000000CB
:1025100000000000000000000000000000000000BB
:1025200000000000000000000000000000000000AB
:102530000000FCFAF7EFDFBF7F7F7F7F7F7F7F7F29
:102540007F7F7F7F7F7F7F3FCFF3FCFFFFFFFE001A
:10255000000000000000FFFFFFFFFFFFFF00000082
:10256000000000000000000000000000FFFFFFFF6F
:10257000FFFFFF00000000000000FFFFFFFFFFFF64
:10258000FF0000000000000000000000000000004C
:10259000FFFFFFFFFFFFFF0000000000000081C3FE
:1025A000E7FFE7C38100000000000000000000001A
:1025B0000000000081C3E7FFE7C3810000000000C6
:1025C0000000FFFFFFFFFFFFFF0000000000000012
:1025D0000000000000000000FFFFFFFFFFFFFF0002
:1025E000000000000000FFFFFFFFFFFFFF000000F2
:1025F000000000000000000000000000FFFFFFFFDF
:10260000FFFFFF000000000000003F5FEFF7FBFD51
:10261000FEFEFEFEFEFEFEFEFEFEFEFEFEFEFEFCDC
:10262000F3CF3FFFFFFF7F0000000000000000002D
:10263000000000000000000000000000000000009A
:1026400000000000C0F0FCFFFFFFFE0000000000E3
:10265000000000000000000000000000000000007A
:102660000000000000000000FFFFFFFFFFFFFF0071
:10267000000000000000000000000000000000005A
:10268000000000000000000000000000FFFFFFFF4E
:10269000FFFFFF000000000000000000000000003D
:1026A000000000000000000000000000000000002A
:1026B00081C3E7FFE7C381000000000000000000C5
:1026C000000000000000000000000000000000000A
:1026D00000000000FFFFFFFFFFFFFF000000000001
:1026E00000000000000000000000000000000000EA
:1026F0000000000000000000FFFFFFFFFFFFFF00E1
:1027000000000000000000000000000000000000C9
:10271000000000000000000000000000030F3FFF69
:10272000FFFF7F000000000000000002070F1F3FB6
:102730007F7F7F7F7F7F7F7F7F7F7F7F7F7F7F3FE9
:10274000CFF3FCFFFFFFFE000000000000000000D0
:102750000000000000000000000000000000000079
:1027600000000000FFFFFFFFFFFFFF000000000070
:102770000000000000000000000000000000000059
:102780000000000000000000FFFFFFFFFFFFFF0050
:1027900000000000000080C0E0F0E0D8BC7EFEFE3B
:1027A000FEFEFEFEFEFEFEFEFEFEFE7E3D1B070F53
:1027B00007030100000000000000FFFFFFFFFFFF14
:1027C000FF0000000000000000000000000000000A
:1027D0000000000000000000000000000000FFFFFB
:1027E000FFFFFFFFFF0000000000000000000000EE
:1027F00000000000000000000000000000000000D9
:1028000000003F5FEFF7FBFDFEFEFEFEFEFEFEFE5C
:10281000FEFEFEFEFEFEFEFCF0C00000000000001A
:102820000000000000000002070F1F3F7F7F7F7F36
:102830007F7F7F7F7F7F7F7F7F7F7F3FCFF3FCFF27
:10284000FFFFFE000000000000000000000000008C
:102850000000000000000000000000000000000078
:10286000FFFFFFFFFFFFFF0000000000000000006F
:102870000000000000000000000000000000000058
:1028800000000000FFFFFFFFFFFFFF00000000004F
:1028900000000000000000183C7EFEFEFEFEFEFE72
:1028A000FEFEFEFEFEFEFE7EBDDBE7FFE7C381000F
:1028B0000000000000000000000000000000000018
:1028C000000000000000000000000000FFFFFFFF0C
:1028D000FFFFFF00000000000000000000000000FB
:1028E00000000000000000000000000000000000E8
:1028F000FFFFFFFFFFFFFF0000000000000000409F
:10290000E0F0F8FCFEFEFEFEFEFEFEFEFEFEFEFE1B
:10291000FEFEFEFCF3CF3FFFFFFF7F000000000044
:102920000000FCF8F0E0C0800000000000000000A3
:102930000000000000000000C0F0FCFFFFFFFE00F0
:10294000000000000000FFFFFFFFFFFFFF0000008E
:10295000000000000000000000000000FFFFFFFF7B
:10296000FFFFFF00000000000000FFFFFFFFFFFF70
:10297000FF00000000000000000000000000000058
:10298000FFFFFFFFFFFFFF0000000000000001034A
:10299000070F071B3D7EFEFEFEFEFEFEFEFEFEFE58
:1029A000FEFEFE7EBDDBE7FFE7C381000000000006
:1029B0000000000000000000000000000000000017
:1029C0000000000000000000FFFFFFFFFFFFFF000E
:1029D00000000000000000000000000000000000F7
:1029E000000000000000000000000000FFFFFFFFEB
:1029F000FFFFFF00000000000000000000000000DA
:102A000000000000000000000000000000000000C6
:102A1000030F3FFFFFFF7F00000000000000FCFAF3
:102A2000F7EFDFBF7F7F7F7F7F7F7F7F7F7F7F7F2E
:102A30007F7F7F3F0F0300000000000000000000C8
:102A40000000FFFFFFFFFFFFFF000000000000008D
:102A50000000000000000000000000000000000076
:102A6000000000000000FFFFFFFFFFFFFF0000006D
:102A70000000000000000000000000000000000056
:102A8000000000000000000000000103070F071B0A
:102A90003D7EFEFEFEFEFEFEFEFEFEFEFEFEFE7E17
:102AA000BCD8E0F0E0C080000000000000000000A2
:102AB0000000000000000000000000000000000016
:102AC00000000000FFFFFFFFFFFFFF00000000000D
:102AD00000000000000000000000000000000000F6
:102AE0000000000000000000FFFFFFFFFFFFFF00ED
:102AF0000000000000000040E0F0F8FCFEFEFEFEDA
:102B0000FEFEFEFEFEFEFEFEFEFEFEFCF3CF3FFFDF
:102B1000FFFF7F00000000000000FCFAF7EFDFBFBE
:102B20007F7F7F7F7F7F7F7F7F7F7F7F7F7F7F3FF5
:102B30000F03000000000000000000000000FFFF85
:102B4000FFFFFFFFFF00000000000000000000008A
:102B50000000000000000000000000000000000075
:102B60000000FFFFFFFFFFFFFF000000000000006C
:102B70000000000000000000000000000000000055
:102B800000000000000081C3E7FFE7DBBD7EFEFE22
:102B9000FEFEFEFEFEFEFEFEFEFEFE7EBCD8E0F069
:102BA000E0C08000000000000000FFFFFFFFFFFF0B
:102BB000FF00000000000000000000000000000016
:102BC000FFFFFFFFFFFFFF00000000000000FFFF0E
:102BD000FFFFFFFFFF0000000000000000000000FA
:102BE00000000000FFFFFFFFFFFFFF0000000000EC
:102BF00000003F5FEFF7FBFDFEFEFEFEFEFEFEFE69
:102C0000FEFEFEFEFEFEFEFCF3CF3FFFFFFF7F0059
:102C10000000000000000002070F1F3F7F7F7F7F42
:102C20007F7F7F7F7F7F7F7F7F7F7F3FCFF3FCFF33
:102C3000FFFFFE0000000000000000000000000098
:102C40000000000000000000000000000000000084
:102C5000FFFFFFFFFFFFFF0000000000000000007B
:102C60000000000000000000000000000000000064
:102C700000000000FFFFFFFFFFFFFF00000000005B
:102C80000000000000000000000000000000000044
:102C9000000000000000000081C3E7FFE7C38100DF
:102CA0000000000000000000000000000000000024
:102CB000000000000000000000000000FFFFFFFF18
:102CC000FFFFFF0000000000000000000000000007
:102CD00000000000000000000000000000000000F4
:102CE000FFFFFFFFFFFFFF000000000000000000EB
:102CF00000000000000000000000000000000000D4
:102D000000000000030F3FFFFFFF7F0000000000F6
:102D10000000FCFAF7EFDFBF7F7F7F7F7F7F7F7F41
:102D20007F7F7F7F7F7F7F3FCFF3FCFFFFFFFE0032
:102D3000000000000000FFFFFFFFFFFFFF0000009A
:102D4000000000000000000000000000FFFFFFFF87
:102D5000FFFFFF00000000000000FFFFFFFFFFFF7C
:102D6000FF00000000000000000000000000000064
:102D7000FFFFFFFFFFFFFF0000000000000081C316
:102D8000E7FFE7DBBD7EFEFEFEFEFEFEFEFEFEFE74
:102D9000FEFEFE7EBDDBE7FFE7C381000000000012
:102DA0000000FFFFFFFFFFFFFF000000000000002A
:102DB0000000000000000000FFFFFFFFFFFFFF001A
:102DC000000000000000FFFFFFFFFFFFFF0000000A
:102DD000000000000000000000000000FFFFFFFFF7
:102DE000FFFFFF000000000000003F5FEFF7FBFD6A
:102DF000FEFEFEFEFEFEFEFEFEFEFEFEFEFEFEFCF5
:102E0000F3CF3FFFFFFF7F00000000000000FCFA4F
:102E1000F7EFDFBF7F7F7F7F7F7F7F7F7F7F7F7F3A
:102E20007F7F7F3FCFF3FCFFFFFFFE00000000002D
:102E30000000FFFFFFFFFFFFFF0000000000000099
:102E40000000000000000000FFFFFFFFFFFFFF0089
:102E5000000000000000FFFFFFFFFFFFFF00000079
:102E6000000000000000000000000000FFFFFFFF66
:102E7000FFFFFF000000000000000103070F071B19
:102E80003D7EFEFEFEFEFEFEFEFEFEFEFEFEFE7E23
:102E9000BDDBE7FFE7C38100000000000000000089
:102EA0000000000000000000000000000000000022
:102EB00000000000FFFFFFFFFFFFFF000000000019
:102EC0000000000000000000000000000000000002
:102ED0000000000000000000FFFFFFFFFFFFFF00F9
:102EE0000000000000000040E0F0F8FCFEFEFEFEE6
:102EF000FEFEFEFEFEFEFEFEFEFEFEFCF3CF3FFFEC
:102F0000FFFF7F0000000000000000000000000044
:102F100000000000000000000000000000000000B1
:102F200000000000000000000000000000000000A1
:102F30000000000000000000000080C0C0C0C08091
:102F40000000000000000000000000000000000081
:102F5000000000000000000000000000000F1F3F04
:102F60003F3F3F1F0F000000000000000000000076
:102F70000000000000000000000000000000000051
:102F80000000000000000000000000000000000041
:102F90000000000000000000000000000000000031
:102FA0000000000000E0F0F8F8F8F8F0E0000000A1
:102FB0000000000000000000000000000000000011
:102FC00000000000000000000001030707070703DE
:102FD00001000000000000000000000000000000F0
:102FE00000000000000000000000000000000000E1
:102FF00000000000000000000000000000000000D1
:10300000000000000000979885E090E00E944921B0
:10301000979A5A924A9285E1D2018C9381E00E945C
:1030200063215A924A9280E390E0D2018D939C935F
:1030300082E00E9463210E94761B249683E00E9416
:10304000FF205A924A928AE9D2018C9381E00E9431
:1030500063215A924A9280E190E0D2018D939C9331
:1030600082E00E9463210E94761B249683E00E94E6
:10307000FF205A924A9281E1D2018C9381E00E9412
:1030800063215A924A9280E290E0D2018D939C9300
:1030900082E00E9463210E94761B249683E00E94B6
:1030A000FF205A924A9280E1D2018C9381E00E94E3
:1030B00063215A924A9288E294E3D2018D939C93C1
:1030C00082E00E9463210E94761B249683E00E9486
:1030D000FF205A924A9282E1D2018C9381E00E94B1
:1030E00063215A924A9282E090E0D2018D939C93A0
:1030F00082E00E9463210E94761B249683E00E9456
:10310000FF205A924A9283E1D2018C9381E00E947F
:1031100063215A924A9288E390E1D2018D939C9365
:1031200082E00E9463210E94761B249683E00E9425
:10313000FF2088E290E00E9449215A924A9282E15F
:10314000D2018C9381E00E9463215A924A9282E1DB
:1031500090E0D2018D939C9382E00E9463210E94B3
:10316000761B249683E00E94FF2088E290E00E9474
:1031700049215A924A9280E1D2018C9381E00E94C7
:1031800063215A924A9280E294E3D2018D939C93F8
:1031900082E00E9463210E94761B249683E00E94B5
:1031A000FF205A924A9283E1D2018C9381E00E94DF
:1031B00063215A924A9288E390E3D2018D939C93C3
:1031C00082E00E9463210E94761B249683E00E9485
:1031D000FF2086E490E00E9449215A924A9280E3BF
:1031E000D2018C9381E00E9463215A924A9280E03E
:1031F00090E0D2018D939C9382E00E9463210E9413
:10320000761B249683E00E94FF205A924A9281E323
:10321000D2018C9381E00E9463215A924A9282E00B
:1032200094E0D2018D939C9382E00E9463210E94DE
:10323000761B249683E00E94FF205A924A9282E3F2
:10324000D2018C9381E00E9463215A924A9287E0D6
:1032500093E0D2018D939C9382E00E9463210E94AF
:10326000761B249683E00E94FF205A924A9283E3C1
:10327000D2018C9381E00E9463215A924A9284E0A9
:1032800093E0D2018D939C9382E00E9463210E947F
:10329000761B249683E00E94FF205A924A9284E390
:1032A000D2018C9381E00E9463215A924A9284E079
:1032B00090E0D2018D939C9382E00E9463210E9452
:1032C000761B249683E00E94FF205A924A9285E35F
:1032D000D2018C9381E00E9463215A924A9281E04C
:1032E00094E0D2018D939C9382E00E9463210E941E
:1032F000761B249683E00E94FF205A924A9286E32E
:10330000D2018C9381E00E9463215A924A9287E015
:1033100097E0D2018D939C9382E00E9463210E94EA
:10332000761B249683E00E94FF205A924A9287E3FC
:10333000D2018C9381E00E9463215A924A9285E0E7
:1033400093E0D2018D939C9382E00E9463210E94BE
:10335000761B249683E00E94FF205A924A9288E3CB
:10336000D2018C9381E00E9463215A924A9280E1BB
:1033700096E0D2018D939C9382E00E9463210E948B
:10338000761B249683E00E94FF205A924A9289E39A
:10339000D2018C9381E00E9463215A924A9280E18B
:1033A00096E0D2018D939C9382E00E9463210E945B
:1033B000761B249683E00E94FF205A924A9283E073
:1033C000D2018C9381E00E9463215A924A9288E351
:1033D00090E1D2018D939C9382E00E9463210E9430
:1033E000761B249683E00E94FF205A924A9281E045
:1033F000D2018C9381E00E9463215A924A9280E02C
:1034000091E0D2018D939C9382E00E9463210E94FF
:10341000761B249683E00E94FF205A924A9280E60F
:10342000D2018C9381E00E9463215A924A9280E0FB
:1034300097E2D2018D939C9382E00E9463210E94C7
:10344000761B249683E00E94FF205A924A9282E0E3
:10345000D2018C9381E00E9463215A924A9280E0CB
:1034600093E0D2018D939C9382E00E9463210E949D
:10347000761B249683E00E94FF205A924A9288E0AD
:10348000D2018C9381E00E9463215A924A9288E093
:1034900098E0D2018D939C9382E00E9463210E9468
:1034A000761B249683E00E94FF205A924A928AE07B
:1034B000D2018C9381E00E9463215A924A9288E063
:1034C00090E0D2018D939C9382E00E9463210E9440
:1034D000761B249683E00E94FF205A924A9281E64E
:1034E000D2018C9381E00E9463215A924A9281E03A
:1034F00090E0D2018D939C9382E00E9463210E9410
:10350000761B249683E00E94FF205A924A9280E91B
:10351000D2018C9381E00E9463215A924A928EE3F9
:1035200091E0D2018D939C9382E00E9463210E94DE
:10353000761B249683E00E94FF205A924A9282E9E9
:10354000D2018C9381E00E9463215A924A9280E0DA
:1035500091E0D2018D939C9382E00E9463210E94AE
:10356000761B249683E00E94FF205A924A9283E9B8
:10357000D2018C9381E00E9463215A924A9280E0AA
:1035800091E0D2018D939C9382E00E9463210E947E
:10359000761B249683E00E94FF205A924A9280EA8A
:1035A000D2018C9381E00E9463215A924A9280E07A
:1035B00090E3D2018D939C9382E00E9463210E944C
:1035C000761B249683E00E94FF205A924A9283EA57
:1035D000D2018C9381E00E9463215A924A9280E149
:1035E00090E0D2018D939C9382E00E9463210E941F
:1035F000761B249683E00E94FF205A924A9287E02D
:10360000D2018C9381E00E9463215A924A9281E018
:1036100090E0D2018D939C9382E00E9463210E94EE
:10362000761B249683E00E94FF205A924A9287E0FC
:10363000D2018C9381E00E9463215A924A9281E2E6
:1036400090E0D2018D939C9382E00E9463210E94BE
:10365000761B249683E00E94FF205A924A9287E0CC
:10366000D2018C9381E00E9463215A924A9283E2B4
:1036700090E0D2018D939C9382E00E9463210E948E
:10368000761B249683E00E94FF205A924A9287E09C
:10369000D2018C9381E00E9463215A924A9283E383
:1036A00090E0D2018D939C9382E00E9463210E945E
:1036B000761B249683E00E94FF205A924A9287E06C
:1036C000D2018C9381E00E9463215A924A9283E353
:1036D00091E0D2018D939C9382E00E9463210E942D
:1036E000761B249683E00E94FF200895A881B9816B
:1036F0008D919C91ACE8B0E08D939C9370E075BB8C
:10370000AA81BB818C918BBBC098C298C29AADE84C
:10371000B0E08C9185BBACE8B0E08C918BBBC09ADB
:10372000C298C29A089581E00E945D2181E00E94C2
:103730005D210E94B32070E075BB72E27BBBC09834
:10374000C298C29AC09AAC81BD8111968C9185BBFA
:10375000AC81BD818C918BBB80E0AA81BB818C93B5
:10376000AA81BB810C910B3318F011F00C94141C3E
:1037700080E0A881B9818C93A881B9810C9107322E
:1037800018F011F00C940C1CC298C29AC298C29AFC
:10379000C298C29AC298C29AC298C29AC298C29A51
:1037A000C298C29AC298C29AC298C29AC298C29A41
:1037B000C298C29AC298C29AC298C29AC298C29A31
:1037C000C298C29AC298C29AC298C29AC298C29A21
:1037D000C298C29AC298C29AC298C29AC298C29A11
:1037E000C298C29AC298C29AC298C29AC298C29A01
:1037F000C298C29AC298C29AC298C29AC298C29AF1
:10380000C298C29AC298C29AA881B9818C918F5FDE
:103810008C9310F40C94BC1BAA81BB818C918F5F9C
:103820008C9310F40C94B01B82E0481A80E0580A84
:103830002496089501E0A881B9818C9180FB8827A6
:1038400080F9482F041BA1E6B0E00C9370E075BB33
:1038500071E67BBBC098C298C29A70E075BBA1E6C6
:10386000B0E08C918BBBC09AC298C29A089582E056
:103870000E945D2181E00E945D2181E00E945D2126
:1038800081E00E945D2182E00E945D2181E00E9432
:103890005D2181E00E945D2181E00E945D2181E047
:1038A0000E945D2181E00E945D2181E00E945D21F6
:1038B00081E00E945D2181E00E945D2181E00E9403
:1038C0005D2182E00E945D2182E00E945D210E94D4
:1038D000B320AAA1BBA18D919C91A8E8B0E08D93E3
:1038E0009C93A8A1B9A18D919C91AAE8B0E08D9379
:1038F0009C93A8A5B9A50E94A123082F41E0041B11
:10390000AE81BF810C9380928600909287000E94C6
:10391000F920AA89BB890E940B230C920E94F620F1
:103920000E94F920A889B9890E940B230C920E9459
:10393000F6200E94F920AE85BF850E940B230C92D1
:103940000E94F620AE85BF850C91AA89BB894C9157
:103950000E949123AC85BD850C93AA89BB890C91EB
:1039600048E0049FAC89BD890C92AC89BD898C91DB
:1039700081508C93AC85BD858C9181508C93E8A54A
:10398000F9A5A2E6B0E00E94862380E0A88DB98D5B
:103990008C93AE81BF814C91A88DB98D0C91041789
:1039A00018F011F00C94251EA88DB98DAD90BB2494
:1039B000A2E6B0E0AA0DBB1D0D91112740E250E038
:1039C000041B150BAA81BB810D931C93A3E8B0E0E7
:1039D0008C9187FB81E00EF080E08F93AA81BB8100
:1039E0000D911C910E3050E0150780E010F009F0A9
:1039F00081E09F918923882311F40C940B1DAA81E7
:103A0000BB810D911C914FE050E0041B150BAA8166
:103A1000BB810D931C93AA81BB810D911C91AE8536
:103A2000BF854D9155270E946721AA81BB810D93C7
:103A30001C93AA81BB810D911C9144E050E0040FBE
:103A4000151FAA81BB810D931C93A6E8B0E00D91D0
:103A50001C91AA81BB814D915C91040F151FA4E8B4
:103A6000B0E00D931C938090840090908500A88D09
:103A7000B98D0D911127A889B9894D9155270E94BB
:103A80006721AE89BF890D931C93AE89BF890D91C3
:103A90001C91AEA1BFA14D915C91040F151FAE8981
:103AA000BF890D931C9380E0A885B9858C93AC8960
:103AB000BD894C91A885B9850C91041718F011F0B7
:103AC0000C941D1EA885B9850D911127ACA1BDA12F
:103AD0004D915C91040F151FAE8DBF8D0D931C93FE
:103AE000AE89BF898D919C91AEE8B0E08D939C9397
:103AF00080E0AA85BB858C93AC85BD854C91AA8559
:103B0000BB850C91041718F011F00C94151E0E943F
:103B1000F920AC8DBD8D0E940B230C920E94F620E3
:103B2000AE8DBF8D8D919C91A0E9B0E08D939C935B
:103B300070E075BB71E27BBBC098C298C29AA1E9E4
:103B4000B0E08C9185BBA0E9B0E08C918BBBC09AB2
:103B5000C298C29A70E075BB70E27BBBC098C298F5
:103B6000C29AAFE8B0E08C9185BBAEE8B0E08C9132
:103B70008BBBC09AC298C29A70E075BB72E27BBBE5
:103B8000C098C298C29AC09A80E0AC81BD818C93E3
:103B9000AC81BD810C91073018F011F00C94FD1D23
:103BA000AC81BD818C91AC8DBD8D0E9419230E948A
:103BB0000F230C900822689409F4E89416F00C94F2
:103BC000EB1DA9E8B0E08C9185BBA8E8B0E08C9132
:103BD0008BBB0C94F31DABE8B0E08C9185BBAAE8DD
:103BE000B0E08C918BBBC298C29AAC81BD818C91A4
:103BF0008F5F8C9310F40C94C81DA0E9B0E00D9178
:103C00001C9148E050E0040F151FA0E9B0E00D93AF
:103C10001C93AEE8B0E00E940321AA85BB858C917D
:103C20008F5F8C9310F40C947C1DA885B9858C91C2
:103C3000885F8C9310F40C94571DA88DB98D8C91CE
:103C40008F5F8C9310F40C94C91C80908600909028
:103C5000870084E1481A80E0580AA0960895A88158
:103C6000B9818D919C91A8E8B0E08D939C93AC8133
:103C7000BD818D919C91AEE8B0E08D939C93AA811B
:103C8000BB818D919C91A0E9B0E08D939C9370E0F5
:103C900075BB71E27BBBC098C298C29AA1E9B0E043
:103CA0008C9185BBA0E9B0E08C918BBBC09AC29887
:103CB000C29A70E075BB70E27BBBC098C298C29A92
:103CC000AFE8B0E08C9185BBAEE8B0E08C918BBBE7
:103CD000C09AC298C29A70E075BB72E27BBBC09872
:103CE000C298C29AA9E8B0E08C9185BBA8E8B0E080
:103CF0008C918BBBC09AC298C29A089582E00E94B0
:103D00005D2182E00E945D2184E00E945D2184E0CB
:103D10000E945D2182E00E945D2184E00E945D217D
:103D200082E00E945D2182E00E945D2182E00E948B
:103D30005D210E94B320E88DF98DD190E080FF24B1
:103D400000270E94D9210E940B222F933F934F936B
:103D50005F93EC89FD89D190E080FF2400270E94C9
:103D6000D9215F914F913F912F910E94AE22EDE0BA
:103D7000F0E0AA85BB850E948B23EA8DFB8DD19054
:103D8000E080FF2400270E94D9210E940B222F935C
:103D90003F934F935F93EE89FF89D190E080FF249A
:103DA00000270E94D9215F914F913F912F910E944E
:103DB000AE22EDE0F0E0AC85BD850E948B2380E073
:103DC00090E0A885B9858D939C93EA85FB850E9438
:103DD000A723EDE0F0E0AE81BF810E948B23EE814E
:103DE000FF810E947721A889B989DD92EC92EC8548
:103DF000FD850E94A723EDE0F0E0AE81BF810E9427
:103E00008B23EE81FF810E947721AE85BF85DD92F5
:103E1000EC92AA89BB898D919C91A8E8B0E08D9322
:103E20009C93AE85BF854D915C91A889B9890D9110
:103E30001C910417150718F011F00C94211F0C9415
:103E4000E81FEA85FB850E94BA21EC85FD850E946A
:103E5000B5210E942622EDE0F0E0AE81BF810E94F4
:103E60008B23AC89BD894D915C91A88DB98D0D9145
:103E70001C910417150718F011F00C94411F0C94B5
:103E80005B1FA88DB98D0D911C91AC89BD898D9159
:103E90009C91A88DB98D8D939C93AC89BD890D9310
:103EA0001C93AE89BF898D919C91A881B9818D9316
:103EB0009C930C94631FAA8DBB8D8D919C91A881BE
:103EC000B9818D939C93A88DB98D8D919C91A0E91A
:103ED000B0E08D939C93AC89BD894D915C91A0E934
:103EE000B0E00D911C910417150718F011F00C9417
:103EF000E61FEE81FF810E94BA21E885F985D19005
:103F0000E080FF2400270E94D9210E947C22EDE05E
:103F1000F0E0AC85BD850E948B23E881F981D190CA
:103F2000E080FF2400270E94D9210E940B22EC850B
:103F3000FD850E94B5210E94BD22EDE0F0E00E94C7
:103F40007721AEE8B0E0DD92EC9270E075BB71E2F3
:103F50007BBBC098C298C29AA1E9B0E08C9185BBA6
:103F6000A0E9B0E08C918BBBC09AC298C29A70E075
:103F700075BB70E27BBBC098C298C29AAFE8B0E054
:103F80008C9185BBAEE8B0E08C918BBBC09AC29897
:103F9000C29A70E075BB72E27BBBC098C298C29AAD
:103FA000A9E8B0E08C9185BBA8E8B0E08C918BBB10
:103FB000C09AC298C29AA885B9850E940321A0E937
:103FC000B0E00E94032110F40C946B1F0C94AD2000
:103FD000EC85FD850E94BA21EA85FB850E94B5210A
:103FE0000E942622EDE0F0E0AE81BF810E948B238B
:103FF000AE89BF894D915C91AA8DBB8D0D911C91AD
:104000000417150718F011F00C9408200C942220C6
:10401000AA8DBB8D0D911C91AE89BF898D919C910C
:10402000AA8DBB8D8D939C93AE89BF890D931C93F4
:10403000AC89BD898D919C91A881B9818D939C9308
:104040000C942A20A88DB98D8D919C91A881B9815D
:104050008D939C93AA8DBB8D8D919C91AEE8B0E021
:104060008D939C93AE89BF894D915C91AEE8B0E091
:104070000D911C910417150718F011F00C94AD2048
:10408000EE81FF810E94BA21E885F985D190E08018
:10409000FF2400270E94D9210E947C22EDE0F0E05D
:1040A000AA85BB850E948B23E881F981D190E080AD
:1040B000FF2400270E94D9210E940B22EA85FB855C
:1040C0000E94B5210E94BD22EDE0F0E00E94772120
:1040D000A0E9B0E0DD92EC9270E075BB71E27BBBD1
:1040E000C098C298C29AA1E9B0E08C9185BBA0E9C2
:1040F000B0E08C918BBBC09AC298C29A70E075BB3D
:1041000070E27BBBC098C298C29AAFE8B0E08C91D5
:1041100085BBAEE8B0E08C918BBBC09AC298C29AC6
:1041200070E075BB72E27BBBC098C298C29AA9E8E6
:10413000B0E08C9185BBA8E8B0E08C918BBBC09AB5
:10414000C298C29AA885B9850E940321AEE8B0E062
:104150000E94032110F40C94322088E1481A80E078
:10416000580A6296089570E075BB70E57BBBC098F5
:10417000C298C29A70E07BBBC09AC298C29A71E59D
:104180007BBBC098C298C29A7FEE7BBBC09AC29894
:10419000C29A72E57BBBC098C298C29A70E07BBBA2
:1041A000C09AC298C29A73E57BBBC098C298C29A63
:1041B00071E075BB7FE37BBBC09AC298C29A70E086
:1041C00075BB70E27BBBC098C298C29A70E07BBBA3
:1041D000C09AC298C29A71E27BBBC098C298C29A38
:1041E00070E07BBBC09AC298C29A08958E2E9F2E13
:1041F0000895E82DF92D0895481A590A0895481A86
:104200008827580A0895ED91FC91EF5FFF4FFC93CA
:10421000EE93089505D00E94672100FC0CD008950C
:104220000024E89457FF02C009D0689400F80BD02E
:1042300010F80124089502D009D0089550954095B2
:104240004F5F5F4F0895E89417FF0895009510950C
:104250000F5F1F4F689408950E940B23802D11F06B
:1042600005D0FACF08958DE001D08AE05D9BFECFA6
:104270008CB9089588EE93E00CD03197D9F7089562
:104280003197F1F70895689462F80895E89462F818
:104290000895EF93FF93EE27E82BE92B31F0E0EA46
:1042A000FFE03197F1F70197D1F7FF91EF91089572
:1042B0005A924A92480E591E08955A924A92480EAE
:1042C0008827581E0895480E8827581E08950F9273
:1042D000B801469F8001479F100D569F100D0F900B
:1042E00008950E940B230D920020D9F708953DD028
:1042F000992711278F2D880F80E8F82A802F881F93
:1043000008F41FEF41F08F57082F07FD04C000325B
:1043100040F08FEF01C08827982FD82EE82EF82E76
:1043200009C08FE1801B082FF694E794D7949795E6
:104330000A95D1F7112351F09095D094E094F09420
:1043400081E0980F8827D81EE81EF81E0F2DFE2C3E
:10435000ED2CD92E0895D094E094F09491E0D90EEC
:104360009927E91EF91E10950895D190E190F190DA
:104370000191089521913191419151910895102F0A
:1043800090E8FF0C001F0927990FF7941078652F0C
:1043900090E8440F551F5927990F479560780038CA
:1043A0000895FF0C90E89027110F9795F794092F27
:1043B0000895102FBD2CDE2CEF2CF02E11234AF483
:1043C000B094D094E094F0949FEFB91AD90AE90A16
:1043D000F90A0EE1FF2039F4FE2CED2CDB2CBB2476
:1043E0000850C2F767C032F00A95BB0CDD1CEE1C0A
:1043F000FF1CF9CF0E94FD21D4CFB7FE089590E8AD
:10440000B91611F4D0FE08959FEFD91AE90AF90AF6
:1044100009F403950895502F2D2D3E2D4F2D612F1A
:1044200008952DEC3CEC4CEC5DE366270FC09DDF5E
:10443000F2DFDD24EE2490E8F92E0FE307C09ADFC7
:1044400005C02227332740E251E46627552351F166
:10445000002381F194DF71F1162700585058089419
:10446000050B18F407FD03C025C007FD23C04695C2
:1044700037952795F694E794D79422D0FF202AF019
:10448000DD0CEE1CFF1C015073F09D2D969548F03D
:10449000DD203AF4EE202AF491E0D90E9927E91EA6
:1044A000F91E7FCF07C09FE7092FF92A9FEFD92E6A
:1044B000E92E0895DD24EE24FF2400271127089516
:1044C0009F929924AA24BB2488E1D216E306F4061D
:1044D00028F0D21AE30AF40A089401C08894991CBF
:1044E000AA1CBB1CDD0CEE1CFF1C8A9571F7D92C95
:1044F000EA2CFB2C9F90089542DFE1F25038D1F274
:104500001627005850580894051F12F418F4CBCF02
:1045100008F0D0CF0BD0FF202AF0BB0CDD1CEE1C26
:10452000FF1C3FCF0F5F0BF4BECF3BCF9F92992470
:10453000AA24BB24992788E1990CAA1CBB1CDD1C6A
:10454000EE1CFF1C30F4920EA31EB41ED91EE91EF1
:10455000F91E8A9589F79F9008950CDF10DF503877
:1045600029F090E869270CC00AF045D01ACF5FE324
:1045700022273327442701C0FDDE01DF5038B1F385
:10458000003899F3902F951B8BF312F434D0FACFA7
:10459000983118F0222733274427983028F0232F0A
:1045A000342F44279850F9CF992329F04695379511
:1045B00027959A95D9F7912F962742F014D0B0F607
:1045C000F794E794D7940F5F8BF66DCF10D051F02E
:1045D00008F4C1DEFF2052F2DD0CEE1CFF1C01507E
:1045E000CBF761CF67CFD20EE31EF41E0895D21A27
:1045F000E30AF40A0895DF92EF92FF920F931F935C
:10460000D22EE32EF42E052F162F6F915F914F912E
:104610003F912F910895C89531960020089591E01B
:10462000882321F08894991F8A95E9F7892F90951E
:104630000895883018F011968850FBCF0895000F28
:10464000111F221F331F0895009510952095309556
:104650000F5F1F4F2F4F3F4F0895019110810EC0E4
:1046600001911191219130810BC00191108117FFAF
:1046700005C03FEF2FEF04C0008111272227332709
:1046800037FF03C0E1DF8DE28D93CF93DF93CF92AD
:10469000DF92EF92AA24BB24CC24DD24EE2440E256
:1046A000CAE0DD2755E093E38881890F87FD9F707D
:1046B00083FD907F891B89935A95A9F7C0DFAA1CB7
:1046C000BB1CCC1CDD1CEE1C4A9551F7E894EFE0B6
:1046D000FF2782910ED0EB30E0F71EF068948A2D10
:1046E0000CD088278D93EF90DF90CF90DF91CF9102
:1046F0000895982F829501D0892F8F70805D26F0C4
:10470000803309F4089568948D93089581918D9371
:104710008823E1F7089594E081918D939A95E1F7CC
:104720000895FF93881BF9E0001FFA9511F4FF919B
:104730000895881F841B18F4840F8894F5CF08947B
:10474000F3CF8FEF83959D919923E1F708950DDEC7
:104750000F77089532343078333230204C43442080
:104760000000537461727420746573740000C8E3B0
:10477000F0FB20F0E0E7F3ECE020EFF0EEE4E0EA1D
:10478000F8ED0000CDE5E3E0F2E8E2200000CFEE36
:10479000E7E8F2E8E2200000CFE8EAF1E8EBE80021
:0647A000CBE8EDE8FF008C
:00000001FF
