:100000000C942A001895000018950000189500001F
:10001000189500001895000018950000189500002C
:10002000189500001895000018950000189500001C
:10003000189500001895000018950000189500000C
:1000400018950000189500001895000018950000FC
:10005000189500008FE58DBFC0E6E8E74E2E88E0DA
:100060008EBFD7E0F5E05F2EA89584B7082E877F76
:1000700084BF88E1992781BD91BDEEEFF7E0A0E64E
:10008000B0E088278D933197E9F766248FEF8ABB1C
:100090008FEF84BBB89ABA9A8F9A979A0E94DF0919
:1000A0005A924A928FEF9FEFD2018D939C9382E0F8
:1000B0000E9491170E94FB0A229682E00E94341748
:1000C0005A924A928FEF9FEFD2018D939C9382E0D8
:1000D0000E9491170E94FB0A229682E00E94341728
:1000E000E2E0F0E00E9468175A924A928FEF9FEF89
:1000F000D2018D939C9382E00E9491170E94FB0A8B
:10010000229682E00E943417E2E0F0E00E94681735
:100110005A924A9280E090E0D2018D939C9382E0C3
:100120000E9491170E94FB0A229682E00E943417D7
:1001300084EF91E00E9477175A924A928FEF9FEFD7
:10014000D2018D939C9382E00E9491170E94FB0A3A
:10015000229682E00E94341784EF91E00E94771784
:100160005A924A9280E090E0D2018D939C9382E073
:100170000E9491170E94FB0A229682E00E94341787
:1001800084EF91E00E9477175A924A928FEF9FEF87
:10019000D2018D939C9382E00E9491170E94FB0AEA
:1001A000229682E00E943417E2E0F0E00E94681795
:1001B0005A924A9280E098EFD2018D939C9382E00C
:1001C0000E9491170E94FB0A229682E00E94341737
:1001D00084EF91E00E9477175A924A9280EE97E05E
:1001E000D2018D939C9382E00E9491170E94FB0A9A
:1001F000229682E00E94341784EF91E00E947717E4
:100200005A924A928FE190E0D2018D939C9382E0C2
:100210000E9491170E94FB0A229682E00E943417E6
:1002200084EF91E00E9477175A924A9280E090E022
:10023000D2018D939C9382E00E9491170E94FB0A49
:10024000229682E00E94341784EF91E00E94771793
:100250008AE090E0A4E9B0E08D939C93A4E9B0E03B
:100260000D911C91063351E0150718F011F00C9414
:10027000900182E390E0A7EAB0E08D939C93A7EA17
:10028000B0E00D911C91063E50E0150718F011F0FA
:100290000C9481015A924A92A4E9B0E08D919C910C
:1002A000D2018D939C9382E00E9491175A924A92B8
:1002B000A7EAB0E08D919C91D2018D939C9382E04E
:1002C0000E9491175A924A928FEF9FEFD2018D931D
:1002D0009C9382E00E9491170E94540D269686E01E
:1002E0000E943417A7EAB0E00D911C9140E250E063
:1002F000040F151FA7EAB0E00D931C9310F00C94A7
:100300003F01A4E9B0E00D911C9140E250E0040FE0
:10031000151FA4E9B0E00D931C9310F00C942E016E
:1003200084EF91E00E9477178AE190E0A4E9B0E0C1
:100330008D939C93A4E9B0E00D911C91063351E09C
:10034000150718F011F00C94FC0182E490E0A7EA84
:10035000B0E08D939C93A7EAB0E00D911C91063E0E
:1003600050E0150718F011F00C94ED015A924A92E2
:10037000A4E9B0E08D919C91D2018D939C9382E091
:100380000E9491175A924A92A7EAB0E08D919C91EF
:10039000D2018D939C9382E00E9491175A924A92C7
:1003A0008FEF9FEFD2018D939C9382E00E94911773
:1003B0000E94540D269686E00E943417A7EAB0E00A
:1003C0000D911C9140E150E0040F151FA7EAB0E029
:1003D0000D931C9310F00C94AB01A4E9B0E00D91C7
:1003E0001C9140E150E0040F151FA4E9B0E00D930B
:1003F0001C9310F00C949A0184EF91E00E947717FF
:1004000082E190E0A4E9B0E08D939C93A4E9B0E090
:100410000D911C91063351E0150718F011F00C9462
:1004200068028AE390E0A7EAB0E08D939C93A7EA84
:10043000B0E00D911C91063E50E0150718F011F048
:100440000C9459025A924A92A4E9B0E08D919C9181
:10045000D2018D939C9382E00E9491175A924A9206
:10046000A7EAB0E08D919C91D2018D939C9382E09C
:100470000E9491175A924A928FEF9FEFD2018D936B
:100480009C9382E00E9491170E94540D269686E06C
:100490000E943417A7EAB0E00D911C9148E050E0AB
:1004A000040F151FA7EAB0E00D931C9310F00C94F5
:1004B0001702A4E9B0E00D911C9148E050E0040F50
:1004C000151FA4E9B0E00D931C9310F00C940602E4
:1004D00084EF91E00E9477178EE090E0A4E9B0E00D
:1004E0008D939C93A4E9B0E00D911C91063351E0EB
:1004F000150718F011F00C94D40286E390E0A7EAF7
:10050000B0E08D939C93A7EAB0E00D911C91063E5C
:1005100050E0150718F011F00C94C5025A924A9257
:10052000A4E9B0E08D919C91D2018D939C9382E0DF
:100530000E9491175A924A92A7EAB0E08D919C913D
:10054000D2018D939C9382E00E9491175A924A9215
:100550008FEF9FEFD2018D939C9382E00E949117C1
:100560000E94540D269686E00E943417A7EAB0E058
:100570000D911C9144E050E0040F151FA7EAB0E074
:100580000D931C9310F00C948302A4E9B0E00D913C
:100590001C9144E050E0040F151FA4E9B0E00D9356
:1005A0001C9310F00C947202E2E0F0E00E946817D5
:1005B0005A924A928FEF9FEFD2018D939C9382E0E3
:1005C0000E9491170E94FB0A229682E00E94341733
:1005D00081E090E0A4E9B0E08D939C93A4E9B0E0C1
:1005E0000D911C91043050E0150718F011F00C9497
:1005F000290484E690E0A7EAB0E08D939C93A7EAF3
:10060000B0E00D911C910C3D50E0150718F011F071
:100610000C948D035A924A9280EA90E0D2018D9315
:100620009C9382E00E9491175A924A928CED90E03E
:10063000D2018D939C9382E00E9491175A924A9224
:10064000A7EAB0E08D919C91D2018D939C9382E0BA
:100650000E9491175A924A9280E590E0D2018D93C0
:100660009C9382E00E9491175A924A9280E090E017
:10067000D2018D939C9382E00E9491170E94A30D5A
:100680002A968AE00E9434175A924A9280EA90E0B1
:10069000D2018D939C9382E00E9491175A924A92C4
:1006A0008CED90E0D2018D939C9382E00E94911793
:1006B0005A924A92A7EAB0E08D919C91D2018D9313
:1006C0009C9382E00E9491175A924A9280E590E0B2
:1006D000D2018D939C9382E00E9491175A924A9284
:1006E0008FEF9FEFD2018D939C9382E00E94911730
:1006F0000E94A30D2A968AE00E943417A7EAB0E070
:100700000D911C9144E050E0040F151FA7EAB0E0E2
:100710000D931C9310F00C94FF028BED90E0A7EA70
:10072000B0E08D939C93A7EAB0E04D915C9105E613
:1007300010E00417150718F011F00C9422045A92D7
:100740004A9280EA90E0D2018D939C9382E00E94CD
:1007500091175A924A928CED90E0D2018D939C931E
:1007600082E00E9491175A924A92A7EAB0E08D91D6
:100770009C91D2018D939C9382E00E9491175A9292
:100780004A9280E590E0D2018D939C9382E00E9492
:1007900091175A924A9280E090E0D2018D939C93F7
:1007A00082E00E9491170E94A30D2A968AE00E947F
:1007B00034175A924A9280EA90E0D2018D939C932A
:1007C00082E00E9491175A924A928CED90E0D201F9
:1007D0008D939C9382E00E9491175A924A92A7EAC5
:1007E000B0E08D919C91D2018D939C9382E00E9408
:1007F00091175A924A9280E590E0D2018D939C9392
:1008000082E00E9491175A924A928FEF9FEFD20195
:100810008D939C9382E00E9491170E94A30D2A96CB
:100820008AE00E943417A7EAB0E00D911C914CEFCA
:100830005FEF040F151FA7EAB0E00D931C9310F4AF
:100840000C949303A4E9B0E00E94381710F40C94C0
:10085000EE025A924A928FEF9FEFD2018D939C93B2
:1008600082E00E9491170E94FB0A229682E00E9479
:1008700034175A924A9284E690E0D2018D939C9369
:1008800082E00E9491175A924A9284E690E0D20147
:100890008D939C9382E00E9491175A924A9288E22B
:1008A00090E0D2018D939C9382E00E9491175A921E
:1008B0004A928FE190E0D2018D939C9382E00E9456
:1008C00091170E94E810289688E00E9434175A92E7
:1008D0004A9284E690E0D2018D939C9382E00E943C
:1008E00091175A924A9284E690E0D2018D939C939C
:1008F00082E00E9491175A924A9287E290E0D201D8
:100900008D939C9382E00E9491175A924A928FE1B4
:1009100090E0D2018D939C9382E00E9491170E94F7
:10092000E810289688E00E9434175A924A9280EA8A
:1009300090E0D2018D939C9382E00E9491175A928D
:100940004A9284E690E0D2018D939C9382E00E94CB
:1009500091175A924A9288E290E0D2018D939C932B
:1009600082E00E9491175A924A9280E090E0D20170
:100970008D939C9382E00E9491170E94E810289624
:1009800088E00E9434175A924A9280EA90E0D2019D
:100990008D939C9382E00E9491175A924A9284E62A
:1009A00090E0D2018D939C9382E00E9491175A921D
:1009B0004A9287E290E0D2018D939C9382E00E945C
:1009C00091175A924A9280E090E0D2018D939C93C5
:1009D00082E00E9491170E94E810289688E00E9409
:1009E00034175A924A928CED90E0D2018D939C93E9
:1009F00082E00E9491175A924A9284E690E0D201D6
:100A00008D939C9382E00E9491175A924A9288E2B9
:100A100090E0D2018D939C9382E00E9491175A92AC
:100A20004A9280E098EFD2018D939C9382E00E94DD
:100A300091170E94E810289688E00E9434175A9275
:100A40004A928CED90E0D2018D939C9382E00E94BB
:100A500091175A924A9284E690E0D2018D939C932A
:100A600082E00E9491175A924A9287E290E0D20166
:100A70008D939C9382E00E9491175A924A9280E053
:100A800098EFD2018D939C9382E00E9491170E946F
:100A9000E810289688E00E9434175A924A9282E819
:100AA00090E0D2018D939C9382E00E9491175A921C
:100AB0004A9280EA90E0D2018D939C9382E00E945A
:100AC00091175A924A9288E290E0D2018D939C93BA
:100AD00082E00E9491175A924A9280E097EFD201E9
:100AE0008D939C9382E00E9491170E94E8102896B3
:100AF00088E00E9434175A924A9282E890E0D2012C
:100B00008D939C9382E00E9491175A924A9280EAB8
:100B100090E0D2018D939C9382E00E9491175A92AB
:100B20004A9287E290E0D2018D939C9382E00E94EA
:100B300091175A924A9280E097EFD2018D939C933D
:100B400082E00E9491170E94E810289688E00E9497
:100B500034175A924A928EEB90E0D2018D939C9377
:100B600082E00E9491175A924A9280EA90E0D20164
:100B70008D939C9382E00E9491175A924A9288E248
:100B800090E0D2018D939C9382E00E9491175A923B
:100B90004A9280E097E0D2018D939C9382E00E947C
:100BA00091170E94E810289688E00E9434175A9204
:100BB0004A928EEB90E0D2018D939C9382E00E944A
:100BC00091175A924A9280EA90E0D2018D939C93B9
:100BD00082E00E9491175A924A9287E290E0D201F5
:100BE0008D939C9382E00E9491175A924A9280E0E2
:100BF00097E0D2018D939C9382E00E9491170E940E
:100C0000E810289688E00E943417E2E0F0E00E94A5
:100C100068175A924A928FEF97E0D2018D939C9376
:100C200082E00E9491170E94FB0A229682E00E94B5
:100C300034175A924A9284E690E0D2018D939C93A5
:100C400082E00E9491175A924A9284E690E0D20183
:100C50008D939C9382E00E9491175A924A9288E267
:100C600090E0D2018D939C9382E00E9491175A925A
:100C70004A928FE190E0D2018D939C9382E00E9492
:100C800091170E94D80F289688E00E9434175A9234
:100C90004A928CED90E0D2018D939C9382E00E9469
:100CA00091175A924A9284E690E0D2018D939C93D8
:100CB00082E00E9491175A924A9288E290E0D20113
:100CC0008D939C9382E00E9491175A924A9280E001
:100CD00098EFD2018D939C9382E00E9491170E941D
:100CE000D80F289688E00E9434175A924A9280EAD8
:100CF00090E0D2018D939C9382E00E9491175A92CA
:100D00004A9280EA90E0D2018D939C9382E00E9407
:100D100091175A924A9288E290E0D2018D939C9367
:100D200082E00E9491175A924A9280E293E0D201A7
:100D30008D939C9382E00E9491170E94D80F289671
:100D400088E00E943417E2E0F0E00E9468175A92AF
:100D50004A928FE190E0D2018D939C9382E00E94B1
:100D600091170E94FB0A229682E00E9434175A9241
:100D70004A928AE090E0D2018D939C9382E00E9497
:100D800091175A924A928AE090E0D2018D939C93F7
:100D900082E00E9491175A924A9280E590E0D20137
:100DA0008D939C9382E00E9491175A924A9280E51B
:100DB00090E0D2018D939C9382E00E9491175A9209
:100DC0004A928FEF9FEFD2018D939C9382E00E9415
:100DD00091170E9477122A968AE00E9434175A923D
:100DE0004A9280EF90E0D2018D939C9382E00E9422
:100DF00091175A924A928AE090E0D2018D939C9387
:100E000082E00E9491175A924A9286E391E0D201C1
:100E10008D939C9382E00E9491175A924A9280E5AA
:100E200090E0D2018D939C9382E00E9491175A9298
:100E30004A9280E098EFD2018D939C9382E00E94C9
:100E400091170E9477122A968AE00E9434175A92CC
:100E50004A928AE090E0D2018D939C9382E00E94B6
:100E600091175A924A9280EA90E0D2018D939C9316
:100E700082E00E9491175A924A9280E590E0D20156
:100E80008D939C9382E00E9491175A924A9286EE2B
:100E900090E0D2018D939C9382E00E9491175A9228
:100EA0004A9280EE9FEFD2018D939C9382E00E9444
:100EB00091170E9477122A968AE00E9434175A925C
:100EC0004A9280EF90E0D2018D939C9382E00E9441
:100ED00091175A924A9280EA90E0D2018D939C93A6
:100EE00082E00E9491175A924A9286E391E0D201E1
:100EF0008D939C9382E00E9491175A924A9286EEBB
:100F000090E0D2018D939C9382E00E9491175A92B7
:100F10004A928FEF97E0D2018D939C9382E00E94DA
:100F200091170E9477122A968AE00E943417E2E015
:100F3000F0E00E9468175A924A9280EA9EEFD2012E
:100F40008D939C9382E00E9491170E94FB0A229647
:100F500082E00E9434175A924A92D201E2EEF2E302
:100F60000E949F1784E00E9491175A924A928DE73F
:100F700090E0D2018D939C9382E00E9491175A9247
:100F80004A928AE090E0D2018D939C9382E00E9485
:100F900091175A924A9281E190E0D2018D939C93ED
:100FA00082E00E9491175A924A9280EA9EEFD20103
:100FB0008D939C9382E00E9491170E94620B2A9667
:100FC0008CE00E9434175A924A928CE390E0D2014E
:100FD0008D939C9382E00E9491175A924A9286E4E4
:100FE00090E0D2018D939C9382E00E9491175A92D7
:100FF0004A928CE890E0D2018D939C9382E00E940B
:1010000091175A924A928CE890E0D2018D939C936A
:1010100082E00E9491175A924A9281E190E0D201B7
:101020008D939C9382E00E9491170E94D3132A967D
:101030008AE00E9434175A924A9288E790E0D201DF
:101040008D939C9382E00E9491175A924A9284E673
:1010500090E0D2018D939C9382E00E9491175A9266
:101060004A9288EC90E0D2018D939C9382E00E949A
:1010700091175A924A9284EB90E0D2018D939C93FF
:1010800082E00E9491175A924A9280E090E0D20149
:101090008D939C9382E00E9491170E94D3132A960D
:1010A0008AE00E9434175A924A9284EB90E0D2016F
:1010B0008D939C9382E00E9491175A924A9286E403
:1010C00090E0D2018D939C9382E00E9491175A92F6
:1010D0004A9284E091E0D2018D939C9382E00E9439
:1010E00091175A924A928CE890E0D2018D939C938A
:1010F00082E00E9491175A924A928DE19CEED201B1
:101100008D939C9382E00E9491170E94D3132A969C
:101110008AE00E9434175A924A928CE390E0D201FE
:101120008D939C9382E00E9491175A924A9280EA92
:1011300090E0D2018D939C9382E00E9491175A9285
:101140004A9284E690E0D2018D939C9382E00E94C3
:1011500091175A924A9288EC90E0D2018D939C9319
:1011600082E00E9491175A924A9285E491EAD20154
:101170008D939C9382E00E9491170E94D3132A962C
:101180008AE00E9434175A924A9281E490E0D20198
:101190008D939C9382E00E9491175A924A9285EA1D
:1011A00090E0D2018D939C9382E00E9491175A9215
:1011B0004A928FE590E0D2018D939C9382E00E9449
:1011C00091175A924A9283EC90E0D2018D939C93AE
:1011D00082E00E9491175A924A9280E098EFD201E1
:1011E0008D939C9382E00E9491170E94D3132A96BC
:1011F0008AE00E9434175A924A928CED90E0D20114
:101200008D939C9382E00E9491175A924A9280EAB1
:1012100090E0D2018D939C9382E00E9491175A92A4
:101220004A9284E091E0D2018D939C9382E00E94E7
:1012300091175A924A9288EC90E0D2018D939C9338
:1012400082E00E9491175A924A9285E491EAD20173
:101250008D939C9382E00E9491170E94D3132A964B
:101260008AE00E9434175A924A9281EE90E0D201AD
:101270008D939C9382E00E9491175A924A9285EA3C
:1012800090E0D2018D939C9382E00E9491175A9234
:101290004A928FEF90E0D2018D939C9382E00E945E
:1012A00091175A924A9283EC90E0D2018D939C93CD
:1012B00082E00E9491175A924A9280E098EFD20100
:1012C0008D939C9382E00E9491170E94D3132A96DB
:1012D0008AE00E9434175A924A9282E390E0D20147
:1012E0008D939C9382E00E9491175A924A928CE3CC
:1012F00090E0D2018D939C9382E00E9491175A92C4
:101300004A928EE091E0D2018D939C9382E00E94FC
:1013100091175A924A9282ED90E0D2018D939C935C
:1013200082E00E9491175A924A928FE190E0D20196
:101330008D939C9382E00E9491170E94D3132A966A
:101340008AE00E943417E2E0F0E00E9468175A92A7
:101350004A928FEF9FEFD2018D939C9382E00E947F
:1013600091170E94FB0A229682E00E9434175A923B
:101370004A928FEF9FEFD2018D939C9382E00E945F
:1013800091170E94FB0A229682E00E943417E1E046
:10139000F0E00E9468175A924A928FEF9FEFD201B5
:1013A0008D939C9382E00E9491170E94FB0A2296E3
:1013B00082E00E9434170C945000F894FFCF979865
:1013C00085E090E00E947717979A5A924A9281E0BE
:1013D000D2018C9381E00E9491175A924A9280E048
:1013E00091E0D2018D939C9382E00E9491170E941C
:1013F000DE0A249683E00E9434175A924A9282E0D1
:10140000D2018C9381E00E9491175A924A9280E017
:1014100092E0D2018D939C9382E00E9491170E94EA
:10142000DE0A249683E00E9434175A924A9283E09F
:10143000D2018C9381E00E9491175A924A9280E3E4
:1014400090E1D2018D939C9382E00E9491170E94BB
:10145000DE0A249683E00E9434175A924A9280E171
:10146000D2018C9381E00E9491175A924A9280E9AE
:1014700096E1D2018D939C9382E00E9491170E9485
:10148000DE0A249683E00E9434175A924A9281E140
:10149000D2018C9381E00E9491175A924A9287E27E
:1014A00092E0D2018D939C9382E00E9491170E945A
:1014B000DE0A249683E00E94341789E190E00E94BE
:1014C00077175A924A9282E1D2018C9381E00E946E
:1014D00091175A924A928DE090E0D2018D939C939D
:1014E00082E00E9491170E94DE0A249683E00E9407
:1014F000341785E090E00E9477175A924A928BE267
:10150000D2018C9381E00E9491175A924A928DE009
:1015100090E0D2018D939C9382E00E9491170E94EB
:10152000DE0A249683E00E9434175A924A9280E69B
:10153000D2018C9381E00E9491175A924A9280E0E6
:1015400097E2D2018D939C9382E00E9491170E94B2
:10155000DE0A249683E00E9434175A924A9281E66A
:10156000D2018C9381E00E9491175A924A9281E0B5
:1015700090E0D2018D939C9382E00E9491170E948B
:10158000DE0A249683E00E9434175A924A9287E03A
:10159000D2018C9381E00E9491175A924A9283E380
:1015A00091E0D2018D939C9382E00E9491170E945A
:1015B000DE0A249683E00E9434170895A881B98139
:1015C0008D919C91AAE8B0E08D939C9370E075BBDF
:1015D000AA81BB818C918BBBC098C298C29AABE8A0
:1015E000B0E08C9185BBAAE8B0E08C918BBBC09A2F
:1015F000C298C29A089581E00E948B1781E00E94F0
:101600008B170E94E81670E075BB72E27BBBC09836
:10161000C298C29AC09AAC81BD8111968C9185BB4B
:10162000AC81BD818C918BBB80E0AA81BB818C9306
:10163000AA81BB810C91073718F011F00C945C0B58
:1016400080E0A881B9818C93A881B9810C910F3475
:1016500018F011F00C94540BC298C29AC298C29A16
:10166000C298C29AC298C29AC298C29AC298C29AA2
:10167000C298C29AC298C29AC298C29AC298C29A92
:10168000C298C29AC298C29AC298C29AC298C29A82
:10169000C298C29AC298C29AA881B9818C918F5F70
:1016A0008C9310F40C94240BAA81BB818C918F5FD6
:1016B0008C9310F40C94180B82E0481A80E0580ABE
:1016C0002496089582E00E948B1781E00E948B1778
:1016D00081E00E948B1781E00E948B1782E00E94BC
:1016E0008B1781E00E948B1781E00E948B1781E0AD
:1016F0000E948B1781E00E948B1781E00E948B175C
:1017000081E00E948B1781E00E948B1781E00E948C
:101710008B1781E00E948B1782E00E948B1782E07A
:101720000E948B170E94E816AAA1BBA18D919C91E3
:10173000A6E8B0E08D939C93A8A1B9A18D919C914E
:10174000A8E8B0E08D939C93A8A5B9A50E9468195C
:10175000082F41E0041BAE81BF810C93809284006E
:10176000909285000E942E17AA89BB890E94391980
:101770000C920E942B170E942E17A889B9890E94EB
:1017800039190C920E942B170E942E17AE85BF8527
:101790000E9439190C920E942B17AE85BF850C91BF
:1017A000AA89BB894C910E945819AC85BD850C93C0
:1017B000AA89BB890C9148E0049FAC89BD890C9231
:1017C000AC89BD898C9181508C93AC85BD858C9101
:1017D00081508C93E8A5F9A5A0E6B0E00E944D19D0
:1017E00080E0A88DB98D8C93AE81BF814C91A88D7E
:1017F000B98D0C91041718F011F00C944A0DA88DB6
:10180000B98DAD90BB24A0E6B0E0AA0DBB1D0D9133
:10181000112740E250E0041B150BAA81BB810D93F8
:101820001C93A1E8B0E08C9187FB81E00EF080E092
:101830008F93AA81BB810D911C910E3050E015074A
:1018400080E010F009F081E09F918923882311F452
:101850000C94360CAA81BB810D911C914FE050E095
:10186000041B150BAA81BB810D931C93AA81BB811C
:101870000D911C91AE85BF854D9155270E949517FE
:10188000AA81BB810D931C93AA81BB810D911C91F0
:1018900044E050E0040F151FAA81BB810D931C93F7
:1018A000A4E8B0E00D911C91AA81BB814D915C919F
:1018B000040F151FA2E8B0E00D931C9380908200E6
:1018C00090908300A88DB98D0D911127A889B989B1
:1018D0004D9155270E949517AE89BF890D931C9392
:1018E000AE89BF890D911C91AEA1BFA14D915C91B4
:1018F000040F151FAE89BF890D931C9380E0A88546
:10190000B9858C93AC89BD894C91A885B9850C911A
:10191000041718F011F00C94420DA885B9850D91AB
:101920001127ACA1BDA14D915C91040F151FAE8D87
:10193000BF8D0D931C93AE89BF898D919C91ACE8AE
:10194000B0E08D939C9380E0AA85BB858C93AC8599
:10195000BD854C91AA85BB850C91041718F011F038
:101960000C943A0D0E942E17AC8DBD8D0E94391932
:101970000C920E942B17AE8DBF8D8D919C91AEE87D
:10198000B0E08D939C9370E075BB70E27BBBC09818
:10199000C298C29AAEE8B0E08C918BBBC09AC29854
:1019A000C29A71E27BBBC098C298C29AADE8B0E01F
:1019B0008C9185BBACE8B0E08C918BBBC09AC2988F
:1019C000C29A70E075BB72E27BBBC098C298C29AA3
:1019D000C09A80E0AC81BD818C93AC81BD810C91BB
:1019E000073018F011F00C94220DAC81BD818C9160
:1019F000AC8DBD8D0E9447190E943D190C900822A4
:101A0000689409F4E89416F00C94100DA7E8B0E07F
:101A10008C9185BBA6E8B0E08C918BBB0C94180D23
:101A2000A9E8B0E08C9185BBA8E8B0E08C918BBBB5
:101A3000C298C29AAC81BD818C918F5F8C9310F457
:101A40000C94ED0CAEE8B0E00D911C9148E050E034
:101A5000040F151FAEE8B0E00D931C93ACE8B0E0A6
:101A60000E943817AA85BB858C918F5F8C9310F4E8
:101A70000C94A70CA885B9858C91885F8C9310F481
:101A80000C94820CA88DB98D8C918F5F8C9310F47F
:101A90000C94F40B809084009090850084E1481AA7
:101AA00080E0580AA0960895A881B9818D919C91F3
:101AB000A6E8B0E08D939C93AC81BD818D919C9103
:101AC000ACE8B0E08D939C93AA81BB818D919C91F1
:101AD000AEE8B0E08D939C9370E075BB70E27BBB89
:101AE000C098C298C29AAFE8B0E08C9185BBAEE8CE
:101AF000B0E08C918BBBC09AC298C29A70E075BB63
:101B000071E27BBBC098C298C29AADE8B0E08C91FC
:101B100085BBACE8B0E08C918BBBC09AC298C29AEE
:101B200070E075BB72E27BBBC098C298C29AA7E80E
:101B3000B0E08C9185BBA6E8B0E08C918BBBC09ADD
:101B4000C298C29A089582E00E948B1782E00E9498
:101B50008B1784E00E948B1784E00E948B1782E031
:101B60000E948B1784E00E948B1782E00E948B17E3
:101B700082E00E948B1782E00E948B170E94E81679
:101B8000E88DF98DD190E080FF2400270E9407188E
:101B90000E9439182F933F934F935F93EC89FD89EF
:101BA000D190E080FF2400270E9407185F914F9199
:101BB0003F912F910E94DC18EDE0F0E0AA85BB85F3
:101BC0000E945219EA8DFB8DD190E080FF240027FE
:101BD0000E9407180E9439182F933F934F935F93E9
:101BE000EE89FF89D190E080FF2400270E9407182A
:101BF0005F914F913F912F910E94DC18EDE0F0E052
:101C0000AC85BD850E94521980E090E0A885B98519
:101C10008D939C93EA85FB850E946E19EDE0F0E0C0
:101C2000AE81BF810E945219EE81FF810E94A517EB
:101C3000A889B989DD92EC92EC85FD850E946E1928
:101C4000EDE0F0E0AE81BF810E945219EE81FF818C
:101C50000E94A517AE85BF85DD92EC92AA89BB894B
:101C60008D919C91A6E8B0E08D939C93AE85BF8545
:101C70004D915C91A889B9890D911C9104171507A4
:101C800018F011F00C94460E0C940D0FEA85FB85AC
:101C90000E94E817EC85FD850E94E3170E94541806
:101CA000EDE0F0E0AE81BF810E945219AC89BD89A0
:101CB0004D915C91A88DB98D0D911C91041715075C
:101CC00018F011F00C94660E0C94800EA88DB98D4E
:101CD0000D911C91AC89BD898D919C91A88DB98D78
:101CE0008D939C93AC89BD890D931C93AE89BF895C
:101CF0008D919C91A881B9818D939C930C94880EB1
:101D0000AA8DBB8D8D919C91A881B9818D939C9357
:101D1000A88DB98D8D919C91AEE8B0E08D939C9388
:101D2000AC89BD894D915C91AEE8B0E00D911C91FC
:101D30000417150718F011F00C940B0FEE81FF81BA
:101D40000E94E817E885F985D190E080FF240027FC
:101D50000E9407180E94AA18EDE0F0E0AC85BD854E
:101D60000E945219E881F981D190E080FF24002778
:101D70000E9407180E943918EC85FD850E94E31720
:101D80000E94EB18EDE0F0E00E94A517ACE8B0E08F
:101D9000DD92EC9270E075BB70E27BBBC098C2989C
:101DA000C29AAFE8B0E08C9185BBAEE8B0E08C9110
:101DB0008BBBC09AC298C29A70E075BB71E27BBBC4
:101DC000C098C298C29AADE8B0E08C9185BBACE8EF
:101DD000B0E08C918BBBC09AC298C29A70E075BB80
:101DE00072E27BBBC098C298C29AA7E8B0E08C911F
:101DF00085BBA6E8B0E08C918BBBC09AC298C29A12
:101E0000A885B9850E943817AEE8B0E00E9438175F
:101E100010F40C94900E0C94D20FEC85FD850E946A
:101E2000E817EA85FB850E94E3170E945418EDE04D
:101E3000F0E0AE81BF810E945219AE89BF894D91F9
:101E40005C91AA8DBB8D0D911C910417150718F09C
:101E500011F00C942D0F0C94470FAA8DBB8D0D9192
:101E60001C91AE89BF898D919C91AA8DBB8D8D935C
:101E70009C93AE89BF890D931C93AC89BD898D91CC
:101E80009C91A881B9818D939C930C944F0FA88D40
:101E9000B98D8D919C91A881B9818D939C93AA8DC8
:101EA000BB8D8D919C91ACE8B0E08D939C93AE89F5
:101EB000BF894D915C91ACE8B0E00D911C91041785
:101EC000150718F011F00C94D20FEE81FF810E94DB
:101ED000E817E885F985D190E080FF2400270E946B
:101EE00007180E94AA18EDE0F0E0AA85BB850E94C1
:101EF0005219E881F981D190E080FF2400270E94E7
:101F000007180E943918EA85FB850E94E3170E9492
:101F1000EB18EDE0F0E00E94A517AEE8B0E0DD922E
:101F2000EC9270E075BB70E27BBBC098C298C29A1D
:101F3000AFE8B0E08C9185BBAEE8B0E08C918BBB94
:101F4000C09AC298C29A70E075BB71E27BBBC09820
:101F5000C298C29AADE8B0E08C9185BBACE8B0E025
:101F60008C918BBBC09AC298C29A70E075BB72E22A
:101F70007BBBC098C298C29AA7E8B0E08C9185BBA1
:101F8000A6E8B0E08C918BBBC09AC298C29AA88593
:101F9000B9850E943817ACE8B0E00E94381710F4F9
:101FA0000C94570F88E1481A80E0580A6296089509
:101FB00082E00E948B1782E00E948B1782E00E94D1
:101FC0008B1782E00E948B1782E00E948B1782E0C1
:101FD0000E948B1782E00E948B1782E00E948B1771
:101FE0000E94E816A889B9898D919C91A6E8B0E075
:101FF0008D939C93AA89BB890D911C91AA89BB8959
:102000004D915C910E949517AE81BF810D931C93F9
:10201000AA89BB890D911C914FEF5FEF0E94951724
:10202000AA85BB850D931C93AA89BB890D911C9130
:102030004FEF5FEF0E949517A885B9850D931C930C
:10204000AA85BB858D919C91AE85BF858D939C9310
:10205000AA89BB894D915C91AE85BF850D911C917C
:10206000041715071CF011F00C94E210AE85BF8523
:102070000D911C91AE85BF854D915C910E94951785
:10208000AC81BD810D931C93AC89BD890D911C91D0
:10209000AE85BF854D915C91040F151FAEE8B0E091
:1020A0000D931C9370E075BB70E27BBBC098C29827
:1020B000C29AAFE8B0E08C9185BBAEE8B0E08C91FD
:1020C0008BBBC09AC298C29AA885B9858D919C9104
:1020D000AC85BD858D939C93AA89BB894D915C91FC
:1020E000AC85BD850D911C91041715071CF011F0EE
:1020F0000C94DC10AC85BD850D911C91AC85BD8523
:102100004D915C910E949517AA81BB810D931C9300
:10211000AA81BB810D911C91AC81BD814D915C91D7
:10212000040F151FA881B9810D931C93AE81BF8147
:102130004D915C91A881B9810D911C9104171507EF
:102140001CF011F00C94D610AE89BF890D911C9132
:10215000AC85BD854D915C91040F151FACE8B0E0D6
:102160000D931C9370E075BB71E27BBBC098C29865
:10217000C29AADE8B0E08C9185BBACE8B0E08C9140
:102180008BBBC09AC298C29A70E075BB72E27BBBEF
:10219000C098C298C29AA7E8B0E08C9185BBA6E827
:1021A000B0E08C918BBBC09AC298C29AAC85BD85B9
:1021B0000E9438170C946C10AE85BF850E943817AA
:1021C0000C94281080E1481A80E0580A609608951F
:1021D00082E00E948B1782E00E948B1782E00E94AF
:1021E0008B1782E00E948B1782E00E948B1782E09F
:1021F0000E948B170E94E816AC85BD858D919C913D
:10220000A6E8B0E08D939C93AE85BF850D911C919F
:10221000AE85BF854D915C910E949517A881B981CB
:102220000D931C9380E090E0AA85BB858D939C93D1
:10223000AE85BF854D915C91AA85BB850D911C91A2
:10224000041715071CF011F00C943812AA85BB85F1
:102250000D911C91AA85BB854D915C910E949517AB
:10226000AE81BF810D931C93AE85BF858D919C91EE
:10227000A885B9858D939C93A885B9854D915C916E
:1022800000E010E0041715071CF011F00C94321256
:10229000A885B9850D911C91A885B9854D915C9152
:1022A0000E949517AC81BD810D931C93AC81BD81BB
:1022B0000D911C91AE81BF814D915C91040F151F52
:1022C000AA81BB810D931C93A881B9814D915C912A
:1022D000AA81BB810D911C91041715071CF011F008
:1022E0000C942C12A889B9890D911C91A885B985E7
:1022F0004D915C91041B150BAEE8B0E00D931C935F
:10230000AA89BB890D911C91AA85BB854D915C91D1
:10231000040F151FACE8B0E00D931C930E943A1215
:10232000A889B9890D911C91A885B9854D915C91B9
:10233000040F151FAEE8B0E00D931C930E943A12F3
:10234000A889B9890D911C91A885B9854D915C9199
:10235000041B150BAEE8B0E00D931C93AA89BB8952
:102360000D911C91AA85BB854D915C91041B150BA9
:10237000ACE8B0E00D931C930E943A12A889B98989
:102380000D911C91A885B9854D915C91040F151F85
:10239000AEE8B0E00D931C930E943A12A889B98967
:1023A0000D911C91AA85BB854D915C91041B150B69
:1023B000AEE8B0E00D931C93AA89BB890D911C91E6
:1023C000A885B9854D915C91040F151FACE8B0E06C
:1023D0000D931C930E943A12A889B9890D911C9102
:1023E000AA85BB854D915C91040F151FAEE8B0E046
:1023F0000D931C930E943A12A889B9890D911C91E2
:10240000AA85BB854D915C91041B150BAEE8B0E02D
:102410000D931C93AA89BB890D911C91A885B98540
:102420004D915C91041B150BACE8B0E00D931C932F
:102430000E943A12A889B9890D911C91AA85BB8581
:102440004D915C91040F151FAEE8B0E00D931C9305
:102450000E943A120C943212A885B9850E943F1747
:102460000C943C11AA85BB850E9438170C94181156
:102470000C94711270E075BB70E27BBBC098C2987F
:10248000C29AAFE8B0E08C9185BBAEE8B0E08C9129
:102490008BBBC09AC298C29A70E075BB71E27BBBDD
:1024A000C098C298C29AADE8B0E08C9185BBACE808
:1024B000B0E08C918BBBC09AC298C29A70E075BB99
:1024C00072E27BBBC098C298C29AA7E8B0E08C9138
:1024D00085BBA6E8B0E08C918BBBC09AC298C29A2B
:1024E00008958CE0481A80E0580A2C96089582E0FE
:1024F0000E948B1782E00E948B17A885B9854D91A9
:102500005C91AC85BD850D911C910417150718F0E1
:1025100011F00C948D120C949D12AC85BD850D911B
:102520001C91A885B9858D919C91AC85BD858D93B5
:102530009C93A885B9850D931C93AE81BF814D9165
:102540005C91AA85BB850D911C910417150718F0A5
:1025500011F00C94AD120C94BD12AA85BB850D919F
:102560001C91AE81BF818D919C91AA85BB858D9375
:102570009C93AE81BF810D931C93A885B9850D9165
:102580001C91AC85BD854D915C91041B150BACE88D
:10259000B0E00D931C93AE81BF810D911C91AA8573
:1025A000BB854D915C91041B150BAEE8B0E00D931B
:1025B0001C93A885B9850E943F17AE81BF810E94F8
:1025C0003F175A924A9280E5D2018C9381E00E9493
:1025D00091175A924A92AE85BF858D919C91D201F6
:1025E0008D939C9382E00E9491170E94DE0A2496AC
:1025F00083E00E9434175A924A9281E5D2018C936B
:1026000081E00E9491175A924A92AA85BB858D91CA
:102610009C91D2018D939C9382E00E9491170E941D
:10262000DE0A249683E00E9434175A924A9282E589
:10263000D2018C9381E00E9491175A924A92A88904
:10264000B9898D919C91D2018D939C9382E00E94D7
:1026500091170E94DE0A249683E00E9434175A9252
:102660004A9283E5D2018C9381E00E9491175A929D
:102670004A92AC85BD858D919C91D2018D939C939E
:1026800082E00E9491170E94DE0A249683E00E9455
:1026900034175A924A9280E2D2018C9381E00E94D0
:1026A00091175A924A92AE85BF858D919C91D20125
:1026B0008D939C9382E00E9491170E94DE0A2496DB
:1026C00083E00E9434175A924A9281E2D2018C939D
:1026D00081E00E9491175A924A92A889B9898D91F6
:1026E0009C91D2018D939C9382E00E9491170E944D
:1026F000DE0A249683E00E943417AC81BD818D915F
:102700009C91A6E8B0E08D939C9370E075BB72E25B
:102710007BBBC098C298C29AC09A80E090E0A88122
:10272000B9818D939C93ACE8B0E04D915C91A88108
:10273000B9810D911C910417150718F011F00C9434
:10274000CD1380E090E0AA81BB818D939C93AEE88D
:10275000B0E04D915C91AA81BB810D911C91041751
:10276000150718F011F00C94C613A7E8B0E08C918F
:1027700085BBA6E8B0E08C918BBBC298C29AAA81B7
:10278000BB810E94381710F40C94A713A881B9815B
:102790000E94381710F40C94931384E0481A80E0D8
:1027A000580A2496089582E00E948B17AE81BF815B
:1027B0004D915C91AA85BB850D911C91041715075D
:1027C00018F011F00C94E6130C94F613AA85BB854F
:1027D0000D911C91AE81BF818D919C91AA85BB8585
:1027E0008D939C93AE81BF810D931C93AC81BD8171
:1027F0004D915C91A885B9850D911C910417150721
:1028000018F011F00C9406140C941614A885B985D0
:102810000D911C91AC81BD818D919C91A885B9854C
:102820008D939C93AC81BD810D931C93AA81BB8138
:102830008D919C91A6E8B0E08D939C935A924A9218
:1028400080E5D2018C9381E00E9491175A924A92BE
:10285000AC85BD858D919C91D2018D939C9382E036
:102860000E9491170E94DE0A249683E00E9434178A
:102870005A924A9281E5D2018C9381E00E9491178D
:102880005A924A92AC85BD858D919C91D2018D93CF
:102890009C9382E00E9491170E94DE0A249683E0B6
:1028A0000E9434175A924A9282E5D2018C9381E0B9
:1028B0000E9491175A924A92AE85BF858D919C9144
:1028C000D2018D939C9382E00E9491170E94DE0AB0
:1028D000249683E00E9434175A924A9283E5D201EB
:1028E0008C9381E00E9491175A924A92AA85BB85E7
:1028F0008D919C91D2018D939C9382E00E949117BF
:102900000E94DE0A249683E00E9434175A924A926B
:1029100080E2D2018C9381E00E9491175A924A92F0
:10292000AC85BD858D919C91D2018D939C9382E065
:102930000E9491170E94DE0A249683E00E943417B9
:102940005A924A9281E2D2018C9381E00E949117BF
:102950005A924A92AE85BF858D919C91D2018D93FA
:102960009C9382E00E9491170E94DE0A249683E0E5
:102970000E94341770E075BB72E27BBBC098C298AE
:10298000C29AC09AAA85BB858D919C91A881B98174
:102990008D939C93AE81BF814D915C91A881B9814B
:1029A0000D911C910417150718F011F00C94E914FF
:1029B000A7E8B0E08C9185BBA6E8B0E08C918BBB1A
:1029C000C298C29AA881B9810E94381710F40C9459
:1029D000CA145A924A9280E5D2018C9381E00E94F7
:1029E00091175A924A92A885B9858D919C91D201EE
:1029F0008D939C9382E00E9491170E94DE0A249698
:102A000083E00E9434175A924A9281E5D2018C9356
:102A100081E00E9491175A924A92A885B9858D91BA
:102A20009C91D2018D939C9382E00E9491170E9409
:102A3000DE0A249683E00E9434175A924A9280E27A
:102A4000D2018C9381E00E9491175A924A92A885F4
:102A5000B9858D919C91D2018D939C9382E00E94C7
:102A600091170E94DE0A249683E00E9434175A923E
:102A70004A9281E2D2018C9381E00E9491175A928E
:102A80004A92AE85BF858D919C91D2018D939C9386
:102A900082E00E9491170E94DE0A249683E00E9441
:102AA000341770E075BB72E27BBBC098C298C29AC3
:102AB000C09AAA85BB858D919C91A881B9818D937F
:102AC0009C93AE81BF814D915C91A881B9810D919C
:102AD0001C910417150718F011F00C948015A7E845
:102AE000B0E08C9185BBA6E8B0E08C918BBBC2981E
:102AF000C29AA881B9810E94381710F40C9461150C
:102B00005A924A9280E5D2018C9381E00E949117FB
:102B10005A924A92AC85BD858D919C91D2018D933C
:102B20009C9382E00E9491170E94DE0A249683E023
:102B30000E9434175A924A9281E5D2018C9381E027
:102B40000E9491175A924A92A885B9858D919C91BD
:102B5000D2018D939C9382E00E9491170E94DE0A1D
:102B6000249683E00E9434175A924A9282E5D20159
:102B70008C9381E00E9491175A924A92AE85BF854C
:102B80008D919C91D2018D939C9382E00E9491172C
:102B90000E94DE0A249683E00E9434175A924A92D9
:102BA00083E5D2018C9381E00E9491175A924A9258
:102BB000AE85BF858D919C91D2018D939C9382E0CF
:102BC0000E9491170E94DE0A249683E00E94341727
:102BD0005A924A9280E2D2018C9381E00E9491172E
:102BE0005A924A92AC85BD858D919C91D2018D936C
:102BF0009C9382E00E9491170E94DE0A249683E053
:102C00000E9434175A924A9281E2D2018C9381E059
:102C10000E9491175A924A92AE85BF858D919C91E0
:102C2000D2018D939C9382E00E9491170E94DE0A4C
:102C3000249683E00E94341770E075BB72E27BBB80
:102C4000C098C298C29AC09AAA85BB858D919C9162
:102C5000A881B9818D939C93AE81BF814D915C9188
:102C6000A881B9810D911C910417150718F011F076
:102C70000C944B16A7E8B0E08C9185BBA6E8B0E0B9
:102C80008C918BBBC298C29AA881B9810E943817D7
:102C900010F40C942C165A924A9282E5D2018C932D
:102CA00081E00E9491175A924A92AA85BB858D9124
:102CB0009C91D2018D939C9382E00E9491170E9477
:102CC000DE0A249683E00E9434175A924A9283E5E2
:102CD000D2018C9381E00E9491175A924A92AA8560
:102CE000BB858D919C91D2018D939C9382E00E9433
:102CF00091170E94DE0A249683E00E9434175A92AC
:102D00004A9280E2D2018C9381E00E9491175A92FC
:102D10004A92A885B9858D919C91D2018D939C93FF
:102D200082E00E9491170E94DE0A249683E00E94AE
:102D300034175A924A9281E2D2018C9381E00E9428
:102D400091175A924A92AA85BB858D919C91D20186
:102D50008D939C9382E00E9491170E94DE0A249634
:102D600083E00E94341770E075BB72E27BBBC098B1
:102D7000C298C29AC09AAA85BB858D919C91A88160
:102D8000B9818D939C93AE81BF814D915C91A88157
:102D9000B9810D911C910417150718F011F00C94CE
:102DA000E216A7E8B0E08C9185BBA6E8B0E08C9174
:102DB0008BBBC298C29AA881B9810E94381710F4BF
:102DC0000C94C31682E0481A80E0580A22960895AF
:102DD00070E075BB70E57BBBC098C298C29AC09A80
:102DE00070E07BBBC298C29AC09871E57BBBC29869
:102DF000C29AC09A7FEE7BBBC298C29AC09872E515
:102E00007BBBC298C29AC09A70E07BBBC298C29A40
:102E1000C09873E57BBBC298C29AC09A71E075BB3B
:102E20007FE37BBBC298C29AC09870E075BB70E22A
:102E30007BBBC298C29AC09A70E07BBBC298C29A10
:102E4000C09871E27BBBC298C29AC09A70E07BBB0B
:102E5000C298C29A08958E2E9F2E0895E82DF92DBE
:102E60000895481A590A0895481A8827580A089553
:102E7000ED91FC91EF5FFF4FFC93EE930895ED9180
:102E8000FC91E150F040FC93EE93089505D00E9430
:102E9000951700FC0CD008950024E89457FF02C059
:102EA00009D0689400F80BD010F80124089502D0DE
:102EB00009D00895509540954F5F5F4F0895E8946D
:102EC00017FF0895009510950F5F1F4F68940895A0
:102ED00088EE93E00CD03197D9F708953197F1F748
:102EE0000895689462F80895E89462F80895EF935D
:102EF000FF93EE27E82BE92B31F0E0EAFFE0319772
:102F0000F1F70197D1F7FF91EF9108955A924A9204
:102F1000480E591E08955A924A92480E8827581E04
:102F20000895480E8827581E08950F92B801469FAD
:102F30008001479F100D569F100D0F9008950E941D
:102F400039190D920020D9F708953DD099271127FE
:102F50008F2D880F80E8F82A802F881F08F41FEF34
:102F600041F08F57082F07FD04C0003240F08FEF6B
:102F700001C08827982FD82EE82EF82E09C08FE19F
:102F8000801B082FF694E794D79497950A95D1F76C
:102F9000112351F09095D094E094F09481E0980F33
:102FA0008827D81EE81EF81E0F2DFE2CED2CD92EDA
:102FB0000895D094E094F09491E0D90E9927E91EF9
:102FC000F91E10950895D190E190F1900191089526
:102FD00021913191419151910895102F90E8FF0C6A
:102FE000001F0927990FF7941078652F90E8440F78
:102FF000551F5927990F4795607800380895FF0CA1
:1030000090E89027110F9795F794092F0895102FA6
:10301000BD2CDE2CEF2CF02E11234AF4B094D0946A
:10302000E094F0949FEFB91AD90AE90AF90A0EE17F
:10303000FF2039F4FE2CED2CDB2CBB240850C2F70A
:1030400067C032F00A95BB0CDD1CEE1CFF1CF9CFEB
:103050000E942B18D4CFB7FE089590E8B91611F44A
:10306000D0FE08959FEFD91AE90AF90A09F40395E9
:103070000895502F2D2D3E2D4F2D612F08952DECAD
:103080003CEC4CEC5DE366270FC09DDFF2DFDD24F6
:10309000EE2490E8F92E0FE307C09ADF05C022273F
:1030A000332740E251E46627552351F1002381F193
:1030B00094DF71F11627005850580894050B18F446
:1030C00007FD03C025C007FD23C04695379527950A
:1030D000F694E794D79422D0FF202AF0DD0CEE1C62
:1030E000FF1C015073F09D2D969548F0DD203AF4B9
:1030F000EE202AF491E0D90E9927E91EF91E7FCF20
:1031000007C09FE7092FF92A9FEFD92EE92E0895CE
:10311000DD24EE24FF240027112708959F9299248F
:10312000AA24BB2488E1D216E306F40628F0D21ABA
:10313000E30AF40A089401C08894991CAA1CBB1CD9
:10314000DD0CEE1CFF1C8A9571F7D92CEA2CFB2CA8
:103150009F90089542DFE1F25038D1F216270058CF
:1031600050580894051F12F418F4CBCF08F0D0CFB4
:103170000BD0FF202AF0BB0CDD1CEE1CFF1C3FCF48
:103180000F5F0BF4BECF3BCF9F929924AA24BB24A0
:10319000992788E1990CAA1CBB1CDD1CEE1CFF1CA6
:1031A00030F4920EA31EB41ED91EE91EF91E8A9594
:1031B00089F79F9008950CDF10DF503829F090E8D0
:1031C00069270CC00AF045D01ACF5FE322273327C6
:1031D000442701C0FDDE01DF5038B1F3003899F318
:1031E000902F951B8BF312F434D0FACF983118F04E
:1031F000222733274427983028F0232F342F4427C1
:103200009850F9CF992329F04695379527959A95A7
:10321000D9F7912F962742F014D0B0F6F794E7949F
:10322000D7940F5F8BF66DCF10D051F008F4C1DE4C
:10323000FF2052F2DD0CEE1CFF1C0150CBF761CFDA
:1032400067CFD20EE31EF41E0895D21AE30AF40AE1
:103250000895DF92EF92FF920F931F93D22EE32EE9
:10326000F42E052F162F6F915F914F913F912F9163
:103270000895C89531960020089591E0882321F0A3
:103280008894991F8A95E9F7892F90950895883039
:1032900018F011968850FBCF089581918D93882363
:1032A000E1F7089594E081918D939A95E1F708955F
:1032B000FF93881BF9E0001FFA9511F4FF91089520
:1032C000881F841B18F4840F8894F5CF0894F3CFDB
:1032D0008FEF83959D919923E1F7089574DE0F7721
:0632E0000895426F780022
:00000001FF
